{"abi":[{"type":"constructor","inputs":[{"name":"blockhashStore","type":"address","internalType":"address"}],"stateMutability":"nonpayable"},{"type":"function","name":"BLOCKHASH_STORE","inputs":[],"outputs":[{"name":"","type":"address","internalType":"contract BlockhashStoreInterface"}],"stateMutability":"view"},{"type":"function","name":"LINK","inputs":[],"outputs":[{"name":"","type":"address","internalType":"contract LinkTokenInterface"}],"stateMutability":"view"},{"type":"function","name":"LINK_NATIVE_FEED","inputs":[],"outputs":[{"name":"","type":"address","internalType":"contract AggregatorV3Interface"}],"stateMutability":"view"},{"type":"function","name":"MAX_CONSUMERS","inputs":[],"outputs":[{"name":"","type":"uint16","internalType":"uint16"}],"stateMutability":"view"},{"type":"function","name":"MAX_NUM_WORDS","inputs":[],"outputs":[{"name":"","type":"uint32","internalType":"uint32"}],"stateMutability":"view"},{"type":"function","name":"MAX_REQUEST_CONFIRMATIONS","inputs":[],"outputs":[{"name":"","type":"uint16","internalType":"uint16"}],"stateMutability":"view"},{"type":"function","name":"acceptOwnership","inputs":[],"outputs":[],"stateMutability":"nonpayable"},{"type":"function","name":"acceptSubscriptionOwnerTransfer","inputs":[{"name":"subId","type":"uint256","internalType":"uint256"}],"outputs":[],"stateMutability":"nonpayable"},{"type":"function","name":"addConsumer","inputs":[{"name":"subId","type":"uint256","internalType":"uint256"},{"name":"consumer","type":"address","internalType":"address"}],"outputs":[],"stateMutability":"nonpayable"},{"type":"function","name":"cancelSubscription","inputs":[{"name":"subId","type":"uint256","internalType":"uint256"},{"name":"to","type":"address","internalType":"address"}],"outputs":[],"stateMutability":"nonpayable"},{"type":"function","name":"createSubscription","inputs":[],"outputs":[{"name":"subId","type":"uint256","internalType":"uint256"}],"stateMutability":"nonpayable"},{"type":"function","name":"deregisterMigratableCoordinator","inputs":[{"name":"target","type":"address","internalType":"address"}],"outputs":[],"stateMutability":"nonpayable"},{"type":"function","name":"deregisterProvingKey","inputs":[{"name":"publicProvingKey","type":"uint256[2]","internalType":"uint256[2]"}],"outputs":[],"stateMutability":"nonpayable"},{"type":"function","name":"fulfillRandomWords","inputs":[{"name":"proof","type":"tuple","internalType":"struct VRF.Proof","components":[{"name":"pk","type":"uint256[2]","internalType":"uint256[2]"},{"name":"gamma","type":"uint256[2]","internalType":"uint256[2]"},{"name":"c","type":"uint256","internalType":"uint256"},{"name":"s","type":"uint256","internalType":"uint256"},{"name":"seed","type":"uint256","internalType":"uint256"},{"name":"uWitness","type":"address","internalType":"address"},{"name":"cGammaWitness","type":"uint256[2]","internalType":"uint256[2]"},{"name":"sHashWitness","type":"uint256[2]","internalType":"uint256[2]"},{"name":"zInv","type":"uint256","internalType":"uint256"}]},{"name":"rc","type":"tuple","internalType":"struct VRFTypes.RequestCommitmentV2Plus","components":[{"name":"blockNum","type":"uint64","internalType":"uint64"},{"name":"subId","type":"uint256","internalType":"uint256"},{"name":"callbackGasLimit","type":"uint32","internalType":"uint32"},{"name":"numWords","type":"uint32","internalType":"uint32"},{"name":"sender","type":"address","internalType":"address"},{"name":"extraArgs","type":"bytes","internalType":"bytes"}]},{"name":"onlyPremium","type":"bool","internalType":"bool"}],"outputs":[{"name":"payment","type":"uint96","internalType":"uint96"}],"stateMutability":"nonpayable"},{"type":"function","name":"fundSubscriptionWithNative","inputs":[{"name":"subId","type":"uint256","internalType":"uint256"}],"outputs":[],"stateMutability":"payable"},{"type":"function","name":"getActiveSubscriptionIds","inputs":[{"name":"startIndex","type":"uint256","internalType":"uint256"},{"name":"maxCount","type":"uint256","internalType":"uint256"}],"outputs":[{"name":"ids","type":"uint256[]","internalType":"uint256[]"}],"stateMutability":"view"},{"type":"function","name":"getSubscription","inputs":[{"name":"subId","type":"uint256","internalType":"uint256"}],"outputs":[{"name":"balance","type":"uint96","internalType":"uint96"},{"name":"nativeBalance","type":"uint96","internalType":"uint96"},{"name":"reqCount","type":"uint64","internalType":"uint64"},{"name":"subOwner","type":"address","internalType":"address"},{"name":"consumers","type":"address[]","internalType":"address[]"}],"stateMutability":"view"},{"type":"function","name":"hashOfKey","inputs":[{"name":"publicKey","type":"uint256[2]","internalType":"uint256[2]"}],"outputs":[{"name":"","type":"bytes32","internalType":"bytes32"}],"stateMutability":"pure"},{"type":"function","name":"migrate","inputs":[{"name":"subId","type":"uint256","internalType":"uint256"},{"name":"newCoordinator","type":"address","internalType":"address"}],"outputs":[],"stateMutability":"nonpayable"},{"type":"function","name":"onTokenTransfer","inputs":[{"name":"","type":"address","internalType":"address"},{"name":"amount","type":"uint256","internalType":"uint256"},{"name":"data","type":"bytes","internalType":"bytes"}],"outputs":[],"stateMutability":"nonpayable"},{"type":"function","name":"owner","inputs":[],"outputs":[{"name":"","type":"address","internalType":"address"}],"stateMutability":"view"},{"type":"function","name":"ownerCancelSubscription","inputs":[{"name":"subId","type":"uint256","internalType":"uint256"}],"outputs":[],"stateMutability":"nonpayable"},{"type":"function","name":"pendingRequestExists","inputs":[{"name":"subId","type":"uint256","internalType":"uint256"}],"outputs":[{"name":"","type":"bool","internalType":"bool"}],"stateMutability":"view"},{"type":"function","name":"recoverFunds","inputs":[{"name":"to","type":"address","internalType":"address"}],"outputs":[],"stateMutability":"nonpayable"},{"type":"function","name":"recoverNativeFunds","inputs":[{"name":"to","type":"address","internalType":"address payable"}],"outputs":[],"stateMutability":"nonpayable"},{"type":"function","name":"registerMigratableCoordinator","inputs":[{"name":"target","type":"address","internalType":"address"}],"outputs":[],"stateMutability":"nonpayable"},{"type":"function","name":"registerProvingKey","inputs":[{"name":"publicProvingKey","type":"uint256[2]","internalType":"uint256[2]"},{"name":"maxGas","type":"uint64","internalType":"uint64"}],"outputs":[],"stateMutability":"nonpayable"},{"type":"function","name":"removeConsumer","inputs":[{"name":"subId","type":"uint256","internalType":"uint256"},{"name":"consumer","type":"address","internalType":"address"}],"outputs":[],"stateMutability":"nonpayable"},{"type":"function","name":"requestRandomWords","inputs":[{"name":"req","type":"tuple","internalType":"struct VRFV2PlusClient.RandomWordsRequest","components":[{"name":"keyHash","type":"bytes32","internalType":"bytes32"},{"name":"subId","type":"uint256","internalType":"uint256"},{"name":"requestConfirmations","type":"uint16","internalType":"uint16"},{"name":"callbackGasLimit","type":"uint32","internalType":"uint32"},{"name":"numWords","type":"uint32","internalType":"uint32"},{"name":"extraArgs","type":"bytes","internalType":"bytes"}]}],"outputs":[{"name":"requestId","type":"uint256","internalType":"uint256"}],"stateMutability":"nonpayable"},{"type":"function","name":"requestSubscriptionOwnerTransfer","inputs":[{"name":"subId","type":"uint256","internalType":"uint256"},{"name":"newOwner","type":"address","internalType":"address"}],"outputs":[],"stateMutability":"nonpayable"},{"type":"function","name":"s_config","inputs":[],"outputs":[{"name":"minimumRequestConfirmations","type":"uint16","internalType":"uint16"},{"name":"maxGasLimit","type":"uint32","internalType":"uint32"},{"name":"reentrancyLock","type":"bool","internalType":"bool"},{"name":"stalenessSeconds","type":"uint32","internalType":"uint32"},{"name":"gasAfterPaymentCalculation","type":"uint32","internalType":"uint32"},{"name":"fulfillmentFlatFeeNativePPM","type":"uint32","internalType":"uint32"},{"name":"fulfillmentFlatFeeLinkDiscountPPM","type":"uint32","internalType":"uint32"},{"name":"nativePremiumPercentage","type":"uint8","internalType":"uint8"},{"name":"linkPremiumPercentage","type":"uint8","internalType":"uint8"}],"stateMutability":"view"},{"type":"function","name":"s_currentSubNonce","inputs":[],"outputs":[{"name":"","type":"uint64","internalType":"uint64"}],"stateMutability":"view"},{"type":"function","name":"s_fallbackWeiPerUnitLink","inputs":[],"outputs":[{"name":"","type":"int256","internalType":"int256"}],"stateMutability":"view"},{"type":"function","name":"s_provingKeyHashes","inputs":[{"name":"","type":"uint256","internalType":"uint256"}],"outputs":[{"name":"","type":"bytes32","internalType":"bytes32"}],"stateMutability":"view"},{"type":"function","name":"s_provingKeys","inputs":[{"name":"","type":"bytes32","internalType":"bytes32"}],"outputs":[{"name":"exists","type":"bool","internalType":"bool"},{"name":"maxGas","type":"uint64","internalType":"uint64"}],"stateMutability":"view"},{"type":"function","name":"s_requestCommitments","inputs":[{"name":"","type":"uint256","internalType":"uint256"}],"outputs":[{"name":"","type":"bytes32","internalType":"bytes32"}],"stateMutability":"view"},{"type":"function","name":"s_totalBalance","inputs":[],"outputs":[{"name":"","type":"uint96","internalType":"uint96"}],"stateMutability":"view"},{"type":"function","name":"s_totalNativeBalance","inputs":[],"outputs":[{"name":"","type":"uint96","internalType":"uint96"}],"stateMutability":"view"},{"type":"function","name":"setConfig","inputs":[{"name":"minimumRequestConfirmations","type":"uint16","internalType":"uint16"},{"name":"maxGasLimit","type":"uint32","internalType":"uint32"},{"name":"stalenessSeconds","type":"uint32","internalType":"uint32"},{"name":"gasAfterPaymentCalculation","type":"uint32","internalType":"uint32"},{"name":"fallbackWeiPerUnitLink","type":"int256","internalType":"int256"},{"name":"fulfillmentFlatFeeNativePPM","type":"uint32","internalType":"uint32"},{"name":"fulfillmentFlatFeeLinkDiscountPPM","type":"uint32","internalType":"uint32"},{"name":"nativePremiumPercentage","type":"uint8","internalType":"uint8"},{"name":"linkPremiumPercentage","type":"uint8","internalType":"uint8"}],"outputs":[],"stateMutability":"nonpayable"},{"type":"function","name":"setLINKAndLINKNativeFeed","inputs":[{"name":"link","type":"address","internalType":"address"},{"name":"linkNativeFeed","type":"address","internalType":"address"}],"outputs":[],"stateMutability":"nonpayable"},{"type":"function","name":"transferOwnership","inputs":[{"name":"to","type":"address","internalType":"address"}],"outputs":[],"stateMutability":"nonpayable"},{"type":"function","name":"withdraw","inputs":[{"name":"recipient","type":"address","internalType":"address"}],"outputs":[],"stateMutability":"nonpayable"},{"type":"function","name":"withdrawNative","inputs":[{"name":"recipient","type":"address","internalType":"address payable"}],"outputs":[],"stateMutability":"nonpayable"},{"type":"event","name":"ConfigSet","inputs":[{"name":"minimumRequestConfirmations","type":"uint16","indexed":false,"internalType":"uint16"},{"name":"maxGasLimit","type":"uint32","indexed":false,"internalType":"uint32"},{"name":"stalenessSeconds","type":"uint32","indexed":false,"internalType":"uint32"},{"name":"gasAfterPaymentCalculation","type":"uint32","indexed":false,"internalType":"uint32"},{"name":"fallbackWeiPerUnitLink","type":"int256","indexed":false,"internalType":"int256"},{"name":"fulfillmentFlatFeeNativePPM","type":"uint32","indexed":false,"internalType":"uint32"},{"name":"fulfillmentFlatFeeLinkDiscountPPM","type":"uint32","indexed":false,"internalType":"uint32"},{"name":"nativePremiumPercentage","type":"uint8","indexed":false,"internalType":"uint8"},{"name":"linkPremiumPercentage","type":"uint8","indexed":false,"internalType":"uint8"}],"anonymous":false},{"type":"event","name":"CoordinatorDeregistered","inputs":[{"name":"coordinatorAddress","type":"address","indexed":false,"internalType":"address"}],"anonymous":false},{"type":"event","name":"CoordinatorRegistered","inputs":[{"name":"coordinatorAddress","type":"address","indexed":false,"internalType":"address"}],"anonymous":false},{"type":"event","name":"FallbackWeiPerUnitLinkUsed","inputs":[{"name":"requestId","type":"uint256","indexed":false,"internalType":"uint256"},{"name":"fallbackWeiPerUnitLink","type":"int256","indexed":false,"internalType":"int256"}],"anonymous":false},{"type":"event","name":"FundsRecovered","inputs":[{"name":"to","type":"address","indexed":false,"internalType":"address"},{"name":"amount","type":"uint256","indexed":false,"internalType":"uint256"}],"anonymous":false},{"type":"event","name":"MigrationCompleted","inputs":[{"name":"newCoordinator","type":"address","indexed":false,"internalType":"address"},{"name":"subId","type":"uint256","indexed":false,"internalType":"uint256"}],"anonymous":false},{"type":"event","name":"NativeFundsRecovered","inputs":[{"name":"to","type":"address","indexed":false,"internalType":"address"},{"name":"amount","type":"uint256","indexed":false,"internalType":"uint256"}],"anonymous":false},{"type":"event","name":"OwnershipTransferRequested","inputs":[{"name":"from","type":"address","indexed":true,"internalType":"address"},{"name":"to","type":"address","indexed":true,"internalType":"address"}],"anonymous":false},{"type":"event","name":"OwnershipTransferred","inputs":[{"name":"from","type":"address","indexed":true,"internalType":"address"},{"name":"to","type":"address","indexed":true,"internalType":"address"}],"anonymous":false},{"type":"event","name":"ProvingKeyDeregistered","inputs":[{"name":"keyHash","type":"bytes32","indexed":false,"internalType":"bytes32"},{"name":"maxGas","type":"uint64","indexed":false,"internalType":"uint64"}],"anonymous":false},{"type":"event","name":"ProvingKeyRegistered","inputs":[{"name":"keyHash","type":"bytes32","indexed":false,"internalType":"bytes32"},{"name":"maxGas","type":"uint64","indexed":false,"internalType":"uint64"}],"anonymous":false},{"type":"event","name":"RandomWordsFulfilled","inputs":[{"name":"requestId","type":"uint256","indexed":true,"internalType":"uint256"},{"name":"outputSeed","type":"uint256","indexed":false,"internalType":"uint256"},{"name":"subId","type":"uint256","indexed":true,"internalType":"uint256"},{"name":"payment","type":"uint96","indexed":false,"internalType":"uint96"},{"name":"nativePayment","type":"bool","indexed":false,"internalType":"bool"},{"name":"success","type":"bool","indexed":false,"internalType":"bool"},{"name":"onlyPremium","type":"bool","indexed":false,"internalType":"bool"}],"anonymous":false},{"type":"event","name":"RandomWordsRequested","inputs":[{"name":"keyHash","type":"bytes32","indexed":true,"internalType":"bytes32"},{"name":"requestId","type":"uint256","indexed":false,"internalType":"uint256"},{"name":"preSeed","type":"uint256","indexed":false,"internalType":"uint256"},{"name":"subId","type":"uint256","indexed":true,"internalType":"uint256"},{"name":"minimumRequestConfirmations","type":"uint16","indexed":false,"internalType":"uint16"},{"name":"callbackGasLimit","type":"uint32","indexed":false,"internalType":"uint32"},{"name":"numWords","type":"uint32","indexed":false,"internalType":"uint32"},{"name":"extraArgs","type":"bytes","indexed":false,"internalType":"bytes"},{"name":"sender","type":"address","indexed":true,"internalType":"address"}],"anonymous":false},{"type":"event","name":"SubscriptionCanceled","inputs":[{"name":"subId","type":"uint256","indexed":true,"internalType":"uint256"},{"name":"to","type":"address","indexed":false,"internalType":"address"},{"name":"amountLink","type":"uint256","indexed":false,"internalType":"uint256"},{"name":"amountNative","type":"uint256","indexed":false,"internalType":"uint256"}],"anonymous":false},{"type":"event","name":"SubscriptionConsumerAdded","inputs":[{"name":"subId","type":"uint256","indexed":true,"internalType":"uint256"},{"name":"consumer","type":"address","indexed":false,"internalType":"address"}],"anonymous":false},{"type":"event","name":"SubscriptionConsumerRemoved","inputs":[{"name":"subId","type":"uint256","indexed":true,"internalType":"uint256"},{"name":"consumer","type":"address","indexed":false,"internalType":"address"}],"anonymous":false},{"type":"event","name":"SubscriptionCreated","inputs":[{"name":"subId","type":"uint256","indexed":true,"internalType":"uint256"},{"name":"owner","type":"address","indexed":false,"internalType":"address"}],"anonymous":false},{"type":"event","name":"SubscriptionFunded","inputs":[{"name":"subId","type":"uint256","indexed":true,"internalType":"uint256"},{"name":"oldBalance","type":"uint256","indexed":false,"internalType":"uint256"},{"name":"newBalance","type":"uint256","indexed":false,"internalType":"uint256"}],"anonymous":false},{"type":"event","name":"SubscriptionFundedWithNative","inputs":[{"name":"subId","type":"uint256","indexed":true,"internalType":"uint256"},{"name":"oldNativeBalance","type":"uint256","indexed":false,"internalType":"uint256"},{"name":"newNativeBalance","type":"uint256","indexed":false,"internalType":"uint256"}],"anonymous":false},{"type":"event","name":"SubscriptionOwnerTransferRequested","inputs":[{"name":"subId","type":"uint256","indexed":true,"internalType":"uint256"},{"name":"from","type":"address","indexed":false,"internalType":"address"},{"name":"to","type":"address","indexed":false,"internalType":"address"}],"anonymous":false},{"type":"event","name":"SubscriptionOwnerTransferred","inputs":[{"name":"subId","type":"uint256","indexed":true,"internalType":"uint256"},{"name":"from","type":"address","indexed":false,"internalType":"address"},{"name":"to","type":"address","indexed":false,"internalType":"address"}],"anonymous":false},{"type":"error","name":"BalanceInvariantViolated","inputs":[{"name":"internalBalance","type":"uint256","internalType":"uint256"},{"name":"externalBalance","type":"uint256","internalType":"uint256"}]},{"type":"error","name":"BlockhashNotInStore","inputs":[{"name":"blockNum","type":"uint256","internalType":"uint256"}]},{"type":"error","name":"CoordinatorAlreadyRegistered","inputs":[{"name":"coordinatorAddress","type":"address","internalType":"address"}]},{"type":"error","name":"CoordinatorNotRegistered","inputs":[{"name":"coordinatorAddress","type":"address","internalType":"address"}]},{"type":"error","name":"FailedToSendNative","inputs":[]},{"type":"error","name":"FailedToTransferLink","inputs":[]},{"type":"error","name":"GasLimitTooBig","inputs":[{"name":"have","type":"uint32","internalType":"uint32"},{"name":"want","type":"uint32","internalType":"uint32"}]},{"type":"error","name":"GasPriceExceeded","inputs":[{"name":"gasPrice","type":"uint256","internalType":"uint256"},{"name":"maxGas","type":"uint256","internalType":"uint256"}]},{"type":"error","name":"IncorrectCommitment","inputs":[]},{"type":"error","name":"IndexOutOfRange","inputs":[]},{"type":"error","name":"InsufficientBalance","inputs":[]},{"type":"error","name":"InvalidCalldata","inputs":[]},{"type":"error","name":"InvalidConsumer","inputs":[{"name":"subId","type":"uint256","internalType":"uint256"},{"name":"consumer","type":"address","internalType":"address"}]},{"type":"error","name":"InvalidExtraArgsTag","inputs":[]},{"type":"error","name":"InvalidLinkWeiPrice","inputs":[{"name":"linkWei","type":"int256","internalType":"int256"}]},{"type":"error","name":"InvalidPremiumPercentage","inputs":[{"name":"premiumPercentage","type":"uint8","internalType":"uint8"},{"name":"max","type":"uint8","internalType":"uint8"}]},{"type":"error","name":"InvalidRequestConfirmations","inputs":[{"name":"have","type":"uint16","internalType":"uint16"},{"name":"min","type":"uint16","internalType":"uint16"},{"name":"max","type":"uint16","internalType":"uint16"}]},{"type":"error","name":"InvalidSubscription","inputs":[]},{"type":"error","name":"LinkAlreadySet","inputs":[]},{"type":"error","name":"LinkDiscountTooHigh","inputs":[{"name":"flatFeeLinkDiscountPPM","type":"uint32","internalType":"uint32"},{"name":"flatFeeNativePPM","type":"uint32","internalType":"uint32"}]},{"type":"error","name":"LinkNotSet","inputs":[]},{"type":"error","name":"MsgDataTooBig","inputs":[{"name":"have","type":"uint256","internalType":"uint256"},{"name":"max","type":"uint32","internalType":"uint32"}]},{"type":"error","name":"MustBeRequestedOwner","inputs":[{"name":"proposedOwner","type":"address","internalType":"address"}]},{"type":"error","name":"MustBeSubOwner","inputs":[{"name":"owner","type":"address","internalType":"address"}]},{"type":"error","name":"NoCorrespondingRequest","inputs":[]},{"type":"error","name":"NoSuchProvingKey","inputs":[{"name":"keyHash","type":"bytes32","internalType":"bytes32"}]},{"type":"error","name":"NumWordsTooBig","inputs":[{"name":"have","type":"uint32","internalType":"uint32"},{"name":"want","type":"uint32","internalType":"uint32"}]},{"type":"error","name":"OnlyCallableFromLink","inputs":[]},{"type":"error","name":"PaymentTooLarge","inputs":[]},{"type":"error","name":"PendingRequestExists","inputs":[]},{"type":"error","name":"ProvingKeyAlreadyRegistered","inputs":[{"name":"keyHash","type":"bytes32","internalType":"bytes32"}]},{"type":"error","name":"Reentrant","inputs":[]},{"type":"error","name":"TooManyConsumers","inputs":[]}],"bytecode":{"object":"0x60a06040523480156200001157600080fd5b506040516200a9de3803806200a9de83398181016040528101906200003791906200030a565b338060008073ffffffffffffffffffffffffffffffffffffffff168273ffffffffffffffffffffffffffffffffffffffff1603620000ac576040517f08c379a0000000000000000000000000000000000000000000000000000000008152600401620000a3906200039d565b60405180910390fd5b816000806101000a81548173ffffffffffffffffffffffffffffffffffffffff021916908373ffffffffffffffffffffffffffffffffffffffff160217905550600073ffffffffffffffffffffffffffffffffffffffff168173ffffffffffffffffffffffffffffffffffffffff1614620001335762000132816200017160201b60201c565b5b5050508073ffffffffffffffffffffffffffffffffffffffff1660808173ffffffffffffffffffffffffffffffffffffffff16815250505062000431565b3373ffffffffffffffffffffffffffffffffffffffff168173ffffffffffffffffffffffffffffffffffffffff1603620001e2576040517f08c379a0000000000000000000000000000000000000000000000000000000008152600401620001d9906200040f565b60405180910390fd5b80600160006101000a81548173ffffffffffffffffffffffffffffffffffffffff021916908373ffffffffffffffffffffffffffffffffffffffff1602179055508073ffffffffffffffffffffffffffffffffffffffff1660008054906101000a900473ffffffffffffffffffffffffffffffffffffffff1673ffffffffffffffffffffffffffffffffffffffff167fed8889f560326eb138920d842192f0eb3dd22b4f139c87a2c57538e05bae127860405160405180910390a350565b600080fd5b600073ffffffffffffffffffffffffffffffffffffffff82169050919050565b6000620002d282620002a5565b9050919050565b620002e481620002c5565b8114620002f057600080fd5b50565b6000815190506200030481620002d9565b92915050565b600060208284031215620003235762000322620002a0565b5b60006200033384828501620002f3565b91505092915050565b600082825260208201905092915050565b7f43616e6e6f7420736574206f776e657220746f207a65726f0000000000000000600082015250565b6000620003856018836200033c565b915062000392826200034d565b602082019050919050565b60006020820190508181036000830152620003b88162000376565b9050919050565b7f43616e6e6f74207472616e7366657220746f2073656c66000000000000000000600082015250565b6000620003f76017836200033c565b91506200040482620003bf565b602082019050919050565b600060208201905081810360008301526200042a81620003e8565b9050919050565b60805161a58a6200045460003960008181611fc40152614d0c015261a58a6000f3fe60806040526004361061025c5760003560e01c80638402595e11610144578063b2a7cac5116100b6578063da2f26101161007a578063da2f2610146108c9578063dac83d2914610907578063dc311dd314610930578063e72f6e3014610971578063ee9d2d381461099a578063f2fde38b146109d75761025c565b8063b2a7cac5146107d4578063bec4c08c146107fd578063caf70c4a14610826578063cb63179714610863578063d98e620e1461088c5761025c565b80639d40a6fd116101085780639d40a6fd146106c6578063a21a23e4146106f1578063a4c0ed361461071c578063a63e0bfb14610745578063aa433aff1461076e578063aefb212f146107975761025c565b80638402595e146105ee57806386fe91c7146106175780638da5cb5b1461064257806395b55cfc1461066d5780639b1c385e146106895761025c565b8063405b84fa116101dd57806364d51a2a116101a157806364d51a2a14610504578063659827441461052f578063689c45171461055857806372e9d5651461058357806379ba5097146105ae5780637a5a2aef146105c55761025c565b8063405b84fa1461042157806340d6bb821461044a57806341af6c871461047557806351cff8d9146104b25780635d06b4ab146104db5761025c565b806315c48b841161022457806315c48b841461033a57806318e3dd27146103655780631b6b6d23146103905780632f622e6b146103bb578063301f42e9146103e45761025c565b806304104edb14610261578063043bd6ae1461028a578063088070f5146102b557806308821d58146102e85780630ae0954014610311575b600080fd5b34801561026d57600080fd5b50610288600480360381019061028391906178d2565b610a00565b005b34801561029657600080fd5b5061029f610c0c565b6040516102ac9190617918565b60405180910390f35b3480156102c157600080fd5b506102ca610c12565b6040516102df999897969594939291906179a6565b60405180910390f35b3480156102f457600080fd5b5061030f600480360381019061030a9190617a5a565b610cd3565b005b34801561031d57600080fd5b5061033860048036038101906103339190617abd565b610f22565b005b34801561034657600080fd5b5061034f610f83565b60405161035c9190617afd565b60405180910390f35b34801561037157600080fd5b5061037a610f88565b6040516103879190617b3f565b60405180910390f35b34801561039c57600080fd5b506103a5610fa6565b6040516103b29190617bb9565b60405180910390f35b3480156103c757600080fd5b506103e260048036038101906103dd9190617c12565b610fcc565b005b3480156103f057600080fd5b5061040b60048036038101906104069190618076565b6111c1565b6040516104189190617b3f565b60405180910390f35b34801561042d57600080fd5b5061044860048036038101906104439190617abd565b611547565b005b34801561045657600080fd5b5061045f6119ed565b60405161046c91906180e8565b60405180910390f35b34801561048157600080fd5b5061049c60048036038101906104979190618103565b6119f3565b6040516104a99190618130565b60405180910390f35b3480156104be57600080fd5b506104d960048036038101906104d491906178d2565b611b16565b005b3480156104e757600080fd5b5061050260048036038101906104fd91906178d2565b611db7565b005b34801561051057600080fd5b50610519611ea7565b6040516105269190617afd565b60405180910390f35b34801561053b57600080fd5b506105566004803603810190610551919061814b565b611eac565b005b34801561056457600080fd5b5061056d611fc2565b60405161057a91906181ac565b60405180910390f35b34801561058f57600080fd5b50610598611fe6565b6040516105a591906181e8565b60405180910390f35b3480156105ba57600080fd5b506105c361200c565b005b3480156105d157600080fd5b506105ec60048036038101906105e79190618203565b6121a1565b005b3480156105fa57600080fd5b5061061560048036038101906106109190617c12565b612341565b005b34801561062357600080fd5b5061062c6124be565b6040516106399190617b3f565b60405180910390f35b34801561064e57600080fd5b506106576124dc565b6040516106649190618252565b60405180910390f35b61068760048036038101906106829190618103565b612505565b005b34801561069557600080fd5b506106b060048036038101906106ab9190618291565b6126f5565b6040516106bd91906182e9565b60405180910390f35b3480156106d257600080fd5b506106db612ce7565b6040516106e89190618313565b60405180910390f35b3480156106fd57600080fd5b50610706612d01565b60405161071391906182e9565b60405180910390f35b34801561072857600080fd5b50610743600480360381019061073e9190618389565b613039565b005b34801561075157600080fd5b5061076c60048036038101906107679190618481565b613304565b005b34801561077a57600080fd5b5061079560048036038101906107909190618103565b6136a7565b005b3480156107a357600080fd5b506107be60048036038101906107b9919061854b565b61375e565b6040516107cb9190618649565b60405180910390f35b3480156107e057600080fd5b506107fb60048036038101906107f69190618103565b613892565b005b34801561080957600080fd5b50610824600480360381019061081f9190617abd565b613b00565b005b34801561083257600080fd5b5061084d6004803603810190610848919061866b565b613c9e565b60405161085a91906186b1565b60405180910390f35b34801561086f57600080fd5b5061088a60048036038101906108859190617abd565b613cce565b005b34801561089857600080fd5b506108b360048036038101906108ae9190618103565b61407c565b6040516108c091906186b1565b60405180910390f35b3480156108d557600080fd5b506108f060048036038101906108eb91906186f8565b6140a0565b6040516108fe929190618725565b60405180910390f35b34801561091357600080fd5b5061092e60048036038101906109299190617abd565b6140e5565b005b34801561093c57600080fd5b5061095760048036038101906109529190618103565b6141e9565b60405161096895949392919061880c565b60405180910390f35b34801561097d57600080fd5b50610998600480360381019061099391906178d2565b6143cb565b005b3480156109a657600080fd5b506109c160048036038101906109bc9190618103565b61469d565b6040516109ce91906186b1565b60405180910390f35b3480156109e357600080fd5b506109fe60048036038101906109f991906178d2565b6146b5565b005b610a086146c9565b6000601180549050905060005b81811015610bcb578273ffffffffffffffffffffffffffffffffffffffff1660118281548110610a4857610a47618866565b5b9060005260206000200160009054906101000a900473ffffffffffffffffffffffffffffffffffffffff1673ffffffffffffffffffffffffffffffffffffffff1603610bba576011600183610a9d91906188c4565b81548110610aae57610aad618866565b5b9060005260206000200160009054906101000a900473ffffffffffffffffffffffffffffffffffffffff1660118281548110610aed57610aec618866565b5b9060005260206000200160006101000a81548173ffffffffffffffffffffffffffffffffffffffff021916908373ffffffffffffffffffffffffffffffffffffffff1602179055506011805480610b4757610b466188f8565b5b6001900381819060005260206000200160006101000a81549073ffffffffffffffffffffffffffffffffffffffff021916905590557ff80a1a97fd42251f3c33cda98635e7399253033a6774fe37cd3f650b5282af3783604051610bab9190618252565b60405180910390a15050610c09565b80610bc490618927565b9050610a15565b50816040517f5428d449000000000000000000000000000000000000000000000000000000008152600401610c009190618252565b60405180910390fd5b50565b60105481565b600c8060000160009054906101000a900461ffff16908060000160029054906101000a900463ffffffff16908060000160069054906101000a900460ff16908060000160079054906101000a900463ffffffff169080600001600b9054906101000a900463ffffffff169080600001600f9054906101000a900463ffffffff16908060000160139054906101000a900463ffffffff16908060000160179054906101000a900460ff16908060000160189054906101000a900460ff16905089565b610cdb6146c9565b6000610d1d826002806020026040519081016040528092919082600260200280828437600081840152601f19601f820116905080830192505050505050613c9e565b90506000600d60008381526020019081526020016000206040518060400160405290816000820160009054906101000a900460ff161515151581526020016000820160019054906101000a900467ffffffffffffffff1667ffffffffffffffff1667ffffffffffffffff168152505090508060000151610dd457816040517f77f5b84c000000000000000000000000000000000000000000000000000000008152600401610dcb91906186b1565b60405180910390fd5b600d6000838152602001908152602001600020600080820160006101000a81549060ff02191690556000820160016101000a81549067ffffffffffffffff021916905550506000600e80549050905060005b81811015610ede5783600e8281548110610e4357610e42618866565b5b906000526020600020015403610ecd57600e600183610e6291906188c4565b81548110610e7357610e72618866565b5b9060005260206000200154600e8281548110610e9257610e91618866565b5b9060005260206000200181905550600e805480610eb257610eb16188f8565b5b60019003818190600052602060002001600090559055610ede565b80610ed790618927565b9050610e26565b507f9b6868e0eb737bcd72205360baa6bfd0ba4e4819a33ade2db384e8a8025639a5838360200151604051610f1492919061896f565b60405180910390a150505050565b81610f2c81614759565b610f3461486e565b610f3d836119f3565b15610f74576040517fb42f66e800000000000000000000000000000000000000000000000000000000815260040160405180910390fd5b610f7e83836148ba565b505050565b60c881565b600a600c9054906101000a90046bffffffffffffffffffffffff1681565b600260009054906101000a900473ffffffffffffffffffffffffffffffffffffffff1681565b610fd461486e565b610fdc6146c9565b6000600b600c9054906101000a90046bffffffffffffffffffffffff166bffffffffffffffffffffffff160361103e576040517ff4d678b800000000000000000000000000000000000000000000000000000000815260040160405180910390fd5b6000600b600c9054906101000a90046bffffffffffffffffffffffff16905080600b600c8282829054906101000a90046bffffffffffffffffffffffff166110869190618998565b92506101000a8154816bffffffffffffffffffffffff02191690836bffffffffffffffffffffffff16021790555080600a600c8282829054906101000a90046bffffffffffffffffffffffff166110dd9190618998565b92506101000a8154816bffffffffffffffffffffffff02191690836bffffffffffffffffffffffff16021790555060008273ffffffffffffffffffffffffffffffffffffffff16826bffffffffffffffffffffffff1660405161113f90618a09565b60006040518083038185875af1925050503d806000811461117c576040519150601f19603f3d011682016040523d82523d6000602084013e611181565b606091505b50509050806111bc576040517f950b247900000000000000000000000000000000000000000000000000000000815260040160405180910390fd5b505050565b60006111cb61486e565b60005a9050610324600036905011156112235760003690506103246040517f0f28961b00000000000000000000000000000000000000000000000000000000815260040161121a929190618a59565b60405180910390fd5b600061122f8686614b16565b9050600061124585836000015160200151614e62565b905060606000836040015190506000886060015163ffffffff1690508067ffffffffffffffff81111561127b5761127a617c55565b5b6040519080825280602002602001820160405280156112a95781602001602082028036833780820191505090505b50925060005b818110156113135782816040516020016112ca929190618a82565b6040516020818303038152906040528051906020012060001c8482815181106112f6576112f5618866565b5b6020026020010181815250508061130c90618927565b90506112af565b5050600f60008560200151815260200190815260200160002060009055600061134185602001518a85614ed7565b9050600660008a602001518152602001908152602001600020600001601881819054906101000a900467ffffffffffffffff1661137d90618aab565b91906101000a81548167ffffffffffffffff021916908367ffffffffffffffff160217905550600460008a6080015173ffffffffffffffffffffffffffffffffffffffff1673ffffffffffffffffffffffffffffffffffffffff16815260200190815260200160002060008a602001518152602001908152602001600020600001600981819054906101000a900467ffffffffffffffff1661141e90618adb565b91906101000a81548167ffffffffffffffff021916908367ffffffffffffffff160217905550600060018a60a0015160018c60a001515161145f91906188c4565b815181106114705761146f618866565b5b602001015160f81c60f81b60f81c60ff1614905060006114928887848d614fb6565b809250819a50505080156114e0577f6ca648a381f22ead7e37773d934e64885dcf861fbfbb26c40354cbf0c4662d1a87602001516010546040516114d7929190618b04565b60405180910390a15b506114f088828c60200151614fee565b896020015186602001517faeb4b4786571e184246d39587f659abf0e26f41f6a3358692250382c0cdb47b7858b85878f604051611531959493929190618b2d565b60405180910390a3505050505050509392505050565b61154f61486e565b61155881615231565b61159957806040517f5428d4490000000000000000000000000000000000000000000000000000000081526004016115909190618252565b60405180910390fd5b6000806000806115a8866141e9565b9450945050935093503373ffffffffffffffffffffffffffffffffffffffff168273ffffffffffffffffffffffffffffffffffffffff161461161f576040517f08c379a000000000000000000000000000000000000000000000000000000000815260040161161690618bdd565b60405180910390fd5b611628866119f3565b15611668576040517f08c379a000000000000000000000000000000000000000000000000000000000815260040161165f90618c49565b60405180910390fd5b60006040518060c00160405280600160ff1681526020018881526020018473ffffffffffffffffffffffffffffffffffffffff168152602001838152602001866bffffffffffffffffffffffff168152602001856bffffffffffffffffffffffff1681525090506000816040516020016116e29190618d7f565b60405160208183030381529060405290506116fc886152e0565b50508673ffffffffffffffffffffffffffffffffffffffff1663ce3f4719866bffffffffffffffffffffffff16836040518363ffffffff1660e01b81526004016117469190618e20565b6000604051808303818588803b15801561175f57600080fd5b505af1158015611773573d6000803e3d6000fd5b5050505050600073ffffffffffffffffffffffffffffffffffffffff16600260009054906101000a900473ffffffffffffffffffffffffffffffffffffffff1673ffffffffffffffffffffffffffffffffffffffff16141580156117e657506000866bffffffffffffffffffffffff1614155b156118cb57600260009054906101000a900473ffffffffffffffffffffffffffffffffffffffff1673ffffffffffffffffffffffffffffffffffffffff1663a9059cbb88886040518363ffffffff1660e01b8152600401611848929190618e73565b6020604051808303816000875af1158015611867573d6000803e3d6000fd5b505050506040513d601f19601f8201168201806040525081019061188b9190618eb1565b6118ca576040517f08c379a00000000000000000000000000000000000000000000000000000000081526004016118c190618f2a565b60405180910390fd5b5b6001600c60000160066101000a81548160ff02191690831515021790555060005b835181101561198b5783818151811061190857611907618866565b5b602002602001015173ffffffffffffffffffffffffffffffffffffffff16638ea98117896040518263ffffffff1660e01b81526004016119489190618252565b600060405180830381600087803b15801561196257600080fd5b505af1158015611976573d6000803e3d6000fd5b505050508061198490618927565b90506118ec565b506000600c60000160066101000a81548160ff0219169083151502179055507fd63ca8cb945956747ee69bfdc3ea754c24a4caf7418db70e46052f7850be418787896040516119db929190618f4a565b60405180910390a15050505050505050565b6101f481565b60008060056000848152602001908152602001600020600201905060008180549050905060008103611a2a57600092505050611b11565b60005b81811015611b0957600060046000858481548110611a4e57611a4d618866565b5b9060005260206000200160009054906101000a900473ffffffffffffffffffffffffffffffffffffffff1673ffffffffffffffffffffffffffffffffffffffff1673ffffffffffffffffffffffffffffffffffffffff168152602001908152602001600020600087815260200190815260200160002060000160099054906101000a900467ffffffffffffffff1667ffffffffffffffff161115611af85760019350505050611b11565b80611b0290618927565b9050611a2d565b506000925050505b919050565b611b1e61486e565b611b266146c9565b600073ffffffffffffffffffffffffffffffffffffffff16600260009054906101000a900473ffffffffffffffffffffffffffffffffffffffff1673ffffffffffffffffffffffffffffffffffffffff1603611bae576040517fc1f0c0a100000000000000000000000000000000000000000000000000000000815260040160405180910390fd5b6000600b60009054906101000a90046bffffffffffffffffffffffff166bffffffffffffffffffffffff1603611c10576040517ff4d678b800000000000000000000000000000000000000000000000000000000815260040160405180910390fd5b6000600b60009054906101000a90046bffffffffffffffffffffffff16905080600b60008282829054906101000a90046bffffffffffffffffffffffff16611c589190618998565b92506101000a8154816bffffffffffffffffffffffff02191690836bffffffffffffffffffffffff16021790555080600a60008282829054906101000a90046bffffffffffffffffffffffff16611caf9190618998565b92506101000a8154816bffffffffffffffffffffffff02191690836bffffffffffffffffffffffff160217905550600260009054906101000a900473ffffffffffffffffffffffffffffffffffffffff1673ffffffffffffffffffffffffffffffffffffffff1663a9059cbb83836040518363ffffffff1660e01b8152600401611d3a929190618e73565b6020604051808303816000875af1158015611d59573d6000803e3d6000fd5b505050506040513d601f19601f82011682018060405250810190611d7d9190618eb1565b611db3576040517ff4d678b800000000000000000000000000000000000000000000000000000000815260040160405180910390fd5b5050565b611dbf6146c9565b611dc881615231565b15611e0a57806040517fac8a27ef000000000000000000000000000000000000000000000000000000008152600401611e019190618252565b60405180910390fd5b6011819080600181540180825580915050600190039060005260206000200160009091909190916101000a81548173ffffffffffffffffffffffffffffffffffffffff021916908373ffffffffffffffffffffffffffffffffffffffff1602179055507fb7cabbfc11e66731fc77de0444614282023bcbd41d16781c753a431d0af0162581604051611e9c9190618252565b60405180910390a150565b606481565b611eb46146c9565b600073ffffffffffffffffffffffffffffffffffffffff16600260009054906101000a900473ffffffffffffffffffffffffffffffffffffffff1673ffffffffffffffffffffffffffffffffffffffff1614611f3c576040517f2d118a6e00000000000000000000000000000000000000000000000000000000815260040160405180910390fd5b81600260006101000a81548173ffffffffffffffffffffffffffffffffffffffff021916908373ffffffffffffffffffffffffffffffffffffffff16021790555080600360006101000a81548173ffffffffffffffffffffffffffffffffffffffff021916908373ffffffffffffffffffffffffffffffffffffffff1602179055505050565b7f000000000000000000000000000000000000000000000000000000000000000081565b600360009054906101000a900473ffffffffffffffffffffffffffffffffffffffff1681565b600160009054906101000a900473ffffffffffffffffffffffffffffffffffffffff1673ffffffffffffffffffffffffffffffffffffffff163373ffffffffffffffffffffffffffffffffffffffff161461209c576040517f08c379a000000000000000000000000000000000000000000000000000000000815260040161209390618fbf565b60405180910390fd5b60008060009054906101000a900473ffffffffffffffffffffffffffffffffffffffff169050336000806101000a81548173ffffffffffffffffffffffffffffffffffffffff021916908373ffffffffffffffffffffffffffffffffffffffff1602179055506000600160006101000a81548173ffffffffffffffffffffffffffffffffffffffff021916908373ffffffffffffffffffffffffffffffffffffffff1602179055503373ffffffffffffffffffffffffffffffffffffffff168173ffffffffffffffffffffffffffffffffffffffff167f8be0079c531659141344cd1fd0a4f28419497f9722a3daafe3b4186f6b6457e060405160405180910390a350565b6121a96146c9565b60006121eb836002806020026040519081016040528092919082600260200280828437600081840152601f19601f820116905080830192505050505050613c9e565b9050600d600082815260200190815260200160002060000160009054906101000a900460ff161561225357806040517f4a0b8fa700000000000000000000000000000000000000000000000000000000815260040161224a91906186b1565b60405180910390fd5b60405180604001604052806001151581526020018367ffffffffffffffff16815250600d600083815260200190815260200160002060008201518160000160006101000a81548160ff02191690831515021790555060208201518160000160016101000a81548167ffffffffffffffff021916908367ffffffffffffffff160217905550905050600e8190806001815401808255809150506001900390600052602060002001600090919091909150557f9b911b2c240bfbef3b6a8f7ed6ee321d1258bb2a3fe6becab52ac1cd3210afd3818360405161233492919061896f565b60405180910390a1505050565b6123496146c9565b60004790506000600a600c9054906101000a90046bffffffffffffffffffffffff166bffffffffffffffffffffffff169050818111156123c25780826040517fa99da3020000000000000000000000000000000000000000000000000000000081526004016123b9929190618a82565b60405180910390fd5b818110156124b957600081836123d891906188c4565b905060008473ffffffffffffffffffffffffffffffffffffffff168260405161240090618a09565b60006040518083038185875af1925050503d806000811461243d576040519150601f19603f3d011682016040523d82523d6000602084013e612442565b606091505b505090508061247d576040517f950b247900000000000000000000000000000000000000000000000000000000815260040160405180910390fd5b7f4aed7c8eed0496c8c19ea2681fcca25741c1602342e38b045d9f1e8e905d2e9c85836040516124ae929190619000565b60405180910390a150505b505050565b600a60009054906101000a90046bffffffffffffffffffffffff1681565b60008060009054906101000a900473ffffffffffffffffffffffffffffffffffffffff16905090565b61250d61486e565b600073ffffffffffffffffffffffffffffffffffffffff166005600083815260200190815260200160002060000160009054906101000a900473ffffffffffffffffffffffffffffffffffffffff1673ffffffffffffffffffffffffffffffffffffffff16036125a9576040517f1f6a65b600000000000000000000000000000000000000000000000000000000815260040160405180910390fd5b600060066000838152602001908152602001600020600001600c9054906101000a90046bffffffffffffffffffffffff166bffffffffffffffffffffffff1690503460066000848152602001908152602001600020600001600c8282829054906101000a90046bffffffffffffffffffffffff166126279190619029565b92506101000a8154816bffffffffffffffffffffffff02191690836bffffffffffffffffffffffff16021790555034600a600c8282829054906101000a90046bffffffffffffffffffffffff1661267e9190619029565b92506101000a8154816bffffffffffffffffffffffff02191690836bffffffffffffffffffffffff160217905550817f7603b205d03651ee812f803fccde89f1012e545a9c99f0abfea9cedd0fd8e9028234846126db9190619069565b6040516126e9929190618a82565b60405180910390a25050565b60006126ff61486e565b600082602001359050600073ffffffffffffffffffffffffffffffffffffffff166005600083815260200190815260200160002060000160009054906101000a900473ffffffffffffffffffffffffffffffffffffffff1673ffffffffffffffffffffffffffffffffffffffff16036127a4576040517f1f6a65b600000000000000000000000000000000000000000000000000000000815260040160405180910390fd5b6000600460003373ffffffffffffffffffffffffffffffffffffffff1673ffffffffffffffffffffffffffffffffffffffff168152602001908152602001600020905060008160008481526020019081526020016000206040518060600160405290816000820160009054906101000a900460ff161515151581526020016000820160019054906101000a900467ffffffffffffffff1667ffffffffffffffff1667ffffffffffffffff1681526020016000820160099054906101000a900467ffffffffffffffff1667ffffffffffffffff1667ffffffffffffffff1681525050905080600001516128cf5782336040517f79bfd4010000000000000000000000000000000000000000000000000000000081526004016128c692919061909d565b60405180910390fd5b600c60000160009054906101000a900461ffff1661ffff168560400160208101906128fa91906190c6565b61ffff161080612924575060c861ffff1685604001602081019061291e91906190c6565b61ffff16115b156129905784604001602081019061293c91906190c6565b600c60000160009054906101000a900461ffff1660c86040517fa7386976000000000000000000000000000000000000000000000000000000008152600401612987939291906190f3565b60405180910390fd5b600c60000160029054906101000a900463ffffffff1663ffffffff168560600160208101906129bf919061912a565b63ffffffff161115612a31578460600160208101906129de919061912a565b600c60000160029054906101000a900463ffffffff166040517ff5d7e01e000000000000000000000000000000000000000000000000000000008152600401612a28929190619157565b60405180910390fd5b6101f463ffffffff16856080016020810190612a4d919061912a565b63ffffffff161115612aac57846080016020810190612a6c919061912a565b6101f46040517f47386bec000000000000000000000000000000000000000000000000000000008152600401612aa3929190619157565b60405180910390fd5b806020018051612abb90618aab565b67ffffffffffffffff16908167ffffffffffffffff1681525050806040018051612ae490618aab565b67ffffffffffffffff16908167ffffffffffffffff16815250506000612b1486600001353386856020015161563a565b80925081965050506000612b3e612b39888060a00190612b34919061918f565b6156ac565b6157a4565b905085612b4961583c565b86896060016020810190612b5d919061912a565b8a6080016020810190612b70919061912a565b3386604051602001612b8897969594939291906191f2565b60405160208183030381529060405280519060200120600f6000888152602001908152602001600020819055503373ffffffffffffffffffffffffffffffffffffffff168588600001357feb0e3652e0f44f417695e6e90f2f42c99b65cd7169074c5a654b16b9748c3a4e89868c6040016020810190612c0891906190c6565b8d6060016020810190612c1b919061912a565b8e6080016020810190612c2e919061912a565b89604051612c4196959493929190619268565b60405180910390a48284600087815260200190815260200160002060008201518160000160006101000a81548160ff02191690831515021790555060208201518160000160016101000a81548167ffffffffffffffff021916908367ffffffffffffffff16021790555060408201518160000160096101000a81548167ffffffffffffffff021916908367ffffffffffffffff1602179055509050505050505050919050565b600760009054906101000a900467ffffffffffffffff1681565b6000612d0b61486e565b6000600760009054906101000a900467ffffffffffffffff16905033600143612d3491906188c4565b403083604051602001612d4a949392919061936f565b6040516020818303038152906040528051906020012060001c9150600181612d7291906193bd565b600760006101000a81548167ffffffffffffffff021916908367ffffffffffffffff16021790555060008067ffffffffffffffff811115612db657612db5617c55565b5b604051908082528060200260200182016040528015612de45781602001602082028036833780820191505090505b509050604051806060016040528060006bffffffffffffffffffffffff16815260200160006bffffffffffffffffffffffff168152602001600067ffffffffffffffff168152506006600085815260200190815260200160002060008201518160000160006101000a8154816bffffffffffffffffffffffff02191690836bffffffffffffffffffffffff160217905550602082015181600001600c6101000a8154816bffffffffffffffffffffffff02191690836bffffffffffffffffffffffff16021790555060408201518160000160186101000a81548167ffffffffffffffff021916908367ffffffffffffffff16021790555090505060405180606001604052803373ffffffffffffffffffffffffffffffffffffffff168152602001600073ffffffffffffffffffffffffffffffffffffffff168152602001828152506005600085815260200190815260200160002060008201518160000160006101000a81548173ffffffffffffffffffffffffffffffffffffffff021916908373ffffffffffffffffffffffffffffffffffffffff16021790555060208201518160010160006101000a81548173ffffffffffffffffffffffffffffffffffffffff021916908373ffffffffffffffffffffffffffffffffffffffff1602179055506040820151816002019080519060200190612fe39291906176d0565b50905050612ffb8360086158d090919063ffffffff16565b50827f1d3015d7ba850fa198dc7b1a3f5d42779313a681035f77c8c03764c61005518d3360405161302c9190618252565b60405180910390a2505090565b61304161486e565b600260009054906101000a900473ffffffffffffffffffffffffffffffffffffffff1673ffffffffffffffffffffffffffffffffffffffff163373ffffffffffffffffffffffffffffffffffffffff16146130c8576040517f44b0e3c300000000000000000000000000000000000000000000000000000000815260040160405180910390fd5b60208282905014613105576040517f8129bbcd00000000000000000000000000000000000000000000000000000000815260040160405180910390fd5b600082828101906131169190618103565b9050600073ffffffffffffffffffffffffffffffffffffffff166005600083815260200190815260200160002060000160009054906101000a900473ffffffffffffffffffffffffffffffffffffffff1673ffffffffffffffffffffffffffffffffffffffff16036131b4576040517f1f6a65b600000000000000000000000000000000000000000000000000000000815260040160405180910390fd5b60006006600083815260200190815260200160002060000160009054906101000a90046bffffffffffffffffffffffff166bffffffffffffffffffffffff169050846006600084815260200190815260200160002060000160008282829054906101000a90046bffffffffffffffffffffffff166132329190619029565b92506101000a8154816bffffffffffffffffffffffff02191690836bffffffffffffffffffffffff16021790555084600a60008282829054906101000a90046bffffffffffffffffffffffff166132899190619029565b92506101000a8154816bffffffffffffffffffffffff02191690836bffffffffffffffffffffffff160217905550817f1ced9348ff549fceab2ac57cd3a9de38edaaab274b725ee82c23e8fc8c4eec7a8287846132e69190619069565b6040516132f4929190618a82565b60405180910390a2505050505050565b61330c6146c9565b60c861ffff168961ffff16111561335f57888960c86040517fa7386976000000000000000000000000000000000000000000000000000000008152600401613356939291906190f3565b60405180910390fd5b600085136133a457846040517f43d4cf6600000000000000000000000000000000000000000000000000000000815260040161339b9190617918565b60405180910390fd5b8363ffffffff168363ffffffff1611156133f75782846040517f2780dcb20000000000000000000000000000000000000000000000000000000081526004016133ee929190619157565b60405180910390fd5b609b60ff168260ff1611156134465781609b6040517f3acc511a00000000000000000000000000000000000000000000000000000000815260040161343d9291906193f9565b60405180910390fd5b609b60ff168160ff1611156134955780609b6040517f3acc511a00000000000000000000000000000000000000000000000000000000815260040161348c9291906193f9565b60405180910390fd5b6040518061012001604052808a61ffff1681526020018963ffffffff1681526020016000151581526020018863ffffffff1681526020018763ffffffff1681526020018563ffffffff1681526020018463ffffffff1681526020018360ff1681526020018260ff16815250600c60008201518160000160006101000a81548161ffff021916908361ffff16021790555060208201518160000160026101000a81548163ffffffff021916908363ffffffff16021790555060408201518160000160066101000a81548160ff02191690831515021790555060608201518160000160076101000a81548163ffffffff021916908363ffffffff160217905550608082015181600001600b6101000a81548163ffffffff021916908363ffffffff16021790555060a082015181600001600f6101000a81548163ffffffff021916908363ffffffff16021790555060c08201518160000160136101000a81548163ffffffff021916908363ffffffff16021790555060e08201518160000160176101000a81548160ff021916908360ff1602179055506101008201518160000160186101000a81548160ff021916908360ff160217905550905050846010819055507f2c6b6b12413678366b05b145c5f00745bdd00e739131ab5de82484a50c9d78b689898989898989898960405161369499989796959493929190619422565b60405180910390a1505050505050505050565b6136af6146c9565b60006005600083815260200190815260200160002060000160009054906101000a900473ffffffffffffffffffffffffffffffffffffffff169050600073ffffffffffffffffffffffffffffffffffffffff168173ffffffffffffffffffffffffffffffffffffffff1603613750576040517f1f6a65b600000000000000000000000000000000000000000000000000000000815260040160405180910390fd5b61375a82826148ba565b5050565b6060600061376c60086158ea565b90508084106137a7576040517f1390f2a100000000000000000000000000000000000000000000000000000000815260040160405180910390fd5b600083856137b59190619069565b9050818111806137c55750600084145b6137cf57806137d1565b815b9050600085826137e191906188c4565b90508067ffffffffffffffff8111156137fd576137fc617c55565b5b60405190808252806020026020018201604052801561382b5781602001602082028036833780820191505090505b50935060005b818110156138885761385887826138489190619069565b60086158ff90919063ffffffff16565b85828151811061386b5761386a618866565b5b6020026020010181815250508061388190618927565b9050613831565b5050505092915050565b61389a61486e565b60006005600083815260200190815260200160002060000160009054906101000a900473ffffffffffffffffffffffffffffffffffffffff169050600073ffffffffffffffffffffffffffffffffffffffff168173ffffffffffffffffffffffffffffffffffffffff160361393b576040517f1f6a65b600000000000000000000000000000000000000000000000000000000815260040160405180910390fd5b3373ffffffffffffffffffffffffffffffffffffffff166005600084815260200190815260200160002060010160009054906101000a900473ffffffffffffffffffffffffffffffffffffffff1673ffffffffffffffffffffffffffffffffffffffff1614613a17576005600083815260200190815260200160002060010160009054906101000a900473ffffffffffffffffffffffffffffffffffffffff166040517fd084e975000000000000000000000000000000000000000000000000000000008152600401613a0e9190618252565b60405180910390fd5b336005600084815260200190815260200160002060000160006101000a81548173ffffffffffffffffffffffffffffffffffffffff021916908373ffffffffffffffffffffffffffffffffffffffff16021790555060006005600084815260200190815260200160002060010160006101000a81548173ffffffffffffffffffffffffffffffffffffffff021916908373ffffffffffffffffffffffffffffffffffffffff160217905550817fd4114ab6e9af9f597c52041f32d62dc57c5c4e4c0d4427006069635e216c93868233604051613af49291906194af565b60405180910390a25050565b81613b0a81614759565b613b1261486e565b6000600460008473ffffffffffffffffffffffffffffffffffffffff1673ffffffffffffffffffffffffffffffffffffffff168152602001908152602001600020600085815260200190815260200160002090508060000160009054906101000a900460ff1615613b835750613c99565b6000600560008681526020019081526020016000206002019050606461ffff16818054905003613bdf576040517f05a48e0f00000000000000000000000000000000000000000000000000000000815260040160405180910390fd5b60018260000160006101000a81548160ff02191690831515021790555080849080600181540180825580915050600190039060005260206000200160009091909190916101000a81548173ffffffffffffffffffffffffffffffffffffffff021916908373ffffffffffffffffffffffffffffffffffffffff160217905550847f1e980d04aa7648e205713e5e8ea3808672ac163d10936d36f91b2c88ac1575e185604051613c8e9190618252565b60405180910390a250505b505050565b600081604051602001613cb1919061955c565b604051602081830303815290604052805190602001209050919050565b81613cd881614759565b613ce061486e565b613ce9836119f3565b15613d20576040517fb42f66e800000000000000000000000000000000000000000000000000000000815260040160405180910390fd5b600460008373ffffffffffffffffffffffffffffffffffffffff1673ffffffffffffffffffffffffffffffffffffffff168152602001908152602001600020600084815260200190815260200160002060000160009054906101000a900460ff16613dc45782826040517f79bfd401000000000000000000000000000000000000000000000000000000008152600401613dbb92919061909d565b60405180910390fd5b600060056000858152602001908152602001600020600201805480602002602001604051908101604052809291908181526020018280548015613e5c57602002820191906000526020600020905b8160009054906101000a900473ffffffffffffffffffffffffffffffffffffffff1673ffffffffffffffffffffffffffffffffffffffff1681526020019060010190808311613e12575b50505050509050600060018251613e7391906188c4565b905060005b8251811015613fd0578473ffffffffffffffffffffffffffffffffffffffff16838281518110613eab57613eaa618866565b5b602002602001015173ffffffffffffffffffffffffffffffffffffffff1603613fbf576000838381518110613ee357613ee2618866565b5b6020026020010151905080600560008981526020019081526020016000206002018381548110613f1657613f15618866565b5b9060005260206000200160006101000a81548173ffffffffffffffffffffffffffffffffffffffff021916908373ffffffffffffffffffffffffffffffffffffffff16021790555060056000888152602001908152602001600020600201805480613f8457613f836188f8565b5b6001900381819060005260206000200160006101000a81549073ffffffffffffffffffffffffffffffffffffffff0219169055905550613fd0565b80613fc990618927565b9050613e78565b506000600460008673ffffffffffffffffffffffffffffffffffffffff1673ffffffffffffffffffffffffffffffffffffffff168152602001908152602001600020600087815260200190815260200160002060000160006101000a81548160ff021916908315150217905550847f32158c6058347c1601b2d12bc696ac6901d8a9a9aa3ba10c27ab0a983e8425a78560405161406d9190618252565b60405180910390a25050505050565b600e818154811061408c57600080fd5b906000526020600020016000915090505481565b600d6020528060005260406000206000915090508060000160009054906101000a900460ff16908060000160019054906101000a900467ffffffffffffffff16905082565b816140ef81614759565b6140f761486e565b60006005600085815260200190815260200160002090508273ffffffffffffffffffffffffffffffffffffffff168160010160009054906101000a900473ffffffffffffffffffffffffffffffffffffffff1673ffffffffffffffffffffffffffffffffffffffff16146141e357828160010160006101000a81548173ffffffffffffffffffffffffffffffffffffffff021916908373ffffffffffffffffffffffffffffffffffffffff160217905550837f21a4dad170a6bf476c31bbcf4a16628295b0e450672eec25d7c93308e05344a133856040516141da9291906194af565b60405180910390a25b50505050565b60008060008060606005600087815260200190815260200160002060000160009054906101000a900473ffffffffffffffffffffffffffffffffffffffff169150600073ffffffffffffffffffffffffffffffffffffffff168273ffffffffffffffffffffffffffffffffffffffff1603614290576040517f1f6a65b600000000000000000000000000000000000000000000000000000000815260040160405180910390fd5b6006600087815260200190815260200160002060000160009054906101000a90046bffffffffffffffffffffffff1660066000888152602001908152602001600020600001600c9054906101000a90046bffffffffffffffffffffffff166006600089815260200190815260200160002060000160189054906101000a900467ffffffffffffffff1684600560008b8152602001908152602001600020600201808054806020026020016040519081016040528092919081815260200182805480156143b157602002820191906000526020600020905b8160009054906101000a900473ffffffffffffffffffffffffffffffffffffffff1673ffffffffffffffffffffffffffffffffffffffff1681526020019060010190808311614367575b505050505090509450945094509450945091939590929450565b6143d36146c9565b600073ffffffffffffffffffffffffffffffffffffffff16600260009054906101000a900473ffffffffffffffffffffffffffffffffffffffff1673ffffffffffffffffffffffffffffffffffffffff160361445b576040517fc1f0c0a100000000000000000000000000000000000000000000000000000000815260040160405180910390fd5b6000600260009054906101000a900473ffffffffffffffffffffffffffffffffffffffff1673ffffffffffffffffffffffffffffffffffffffff166370a08231306040518263ffffffff1660e01b81526004016144b89190618252565b602060405180830381865afa1580156144d5573d6000803e3d6000fd5b505050506040513d601f19601f820116820180604052508101906144f9919061958c565b90506000600a60009054906101000a90046bffffffffffffffffffffffff166bffffffffffffffffffffffff1690508181111561456f5780826040517fa99da302000000000000000000000000000000000000000000000000000000008152600401614566929190618a82565b60405180910390fd5b81811015614698576000818361458591906188c4565b9050600260009054906101000a900473ffffffffffffffffffffffffffffffffffffffff1673ffffffffffffffffffffffffffffffffffffffff1663a9059cbb85836040518363ffffffff1660e01b81526004016145e4929190618f4a565b6020604051808303816000875af1158015614603573d6000803e3d6000fd5b505050506040513d601f19601f820116820180604052508101906146279190618eb1565b61465d576040517f7c07fc4c00000000000000000000000000000000000000000000000000000000815260040160405180910390fd5b7f59bfc682b673f8cbf945f1e454df9334834abf7dfe7f92237ca29ecb9b436600848260405161468e929190618f4a565b60405180910390a1505b505050565b600f6020528060005260406000206000915090505481565b6146bd6146c9565b6146c681615919565b50565b60008054906101000a900473ffffffffffffffffffffffffffffffffffffffff1673ffffffffffffffffffffffffffffffffffffffff163373ffffffffffffffffffffffffffffffffffffffff1614614757576040517f08c379a000000000000000000000000000000000000000000000000000000000815260040161474e90619605565b60405180910390fd5b565b60006005600083815260200190815260200160002060000160009054906101000a900473ffffffffffffffffffffffffffffffffffffffff169050600073ffffffffffffffffffffffffffffffffffffffff168173ffffffffffffffffffffffffffffffffffffffff16036147fa576040517f1f6a65b600000000000000000000000000000000000000000000000000000000815260040160405180910390fd5b8073ffffffffffffffffffffffffffffffffffffffff163373ffffffffffffffffffffffffffffffffffffffff161461486a57806040517fd8a3fb520000000000000000000000000000000000000000000000000000000081526004016148619190618252565b60405180910390fd5b5050565b600c60000160069054906101000a900460ff16156148b8576040517fed3ba6a600000000000000000000000000000000000000000000000000000000815260040160405180910390fd5b565b6000806148c6846152e0565b91509150600073ffffffffffffffffffffffffffffffffffffffff16600260009054906101000a900473ffffffffffffffffffffffffffffffffffffffff1673ffffffffffffffffffffffffffffffffffffffff161415801561493857506000826bffffffffffffffffffffffff1614155b15614a2257600260009054906101000a900473ffffffffffffffffffffffffffffffffffffffff1673ffffffffffffffffffffffffffffffffffffffff1663a9059cbb84846bffffffffffffffffffffffff166040518363ffffffff1660e01b81526004016149a8929190618f4a565b6020604051808303816000875af11580156149c7573d6000803e3d6000fd5b505050506040513d601f19601f820116820180604052508101906149eb9190618eb1565b614a21576040517ff4d678b800000000000000000000000000000000000000000000000000000000815260040160405180910390fd5b5b60008373ffffffffffffffffffffffffffffffffffffffff16826bffffffffffffffffffffffff16604051614a5690618a09565b60006040518083038185875af1925050503d8060008114614a93576040519150601f19603f3d011682016040523d82523d6000602084013e614a98565b606091505b5050905080614ad3576040517f950b247900000000000000000000000000000000000000000000000000000000815260040160405180910390fd5b847f8c74ce8b8cf87f5eb001275c8be27eb34ea2b62bfab6814fcc62192bb63e81c4858585604051614b0793929190619625565b60405180910390a25050505050565b614b1e61775a565b6000614b2d8460000151613c9e565b90506000600d60008381526020019081526020016000206040518060400160405290816000820160009054906101000a900460ff161515151581526020016000820160019054906101000a900467ffffffffffffffff1667ffffffffffffffff1667ffffffffffffffff168152505090508060000151614be457816040517f77f5b84c000000000000000000000000000000000000000000000000000000008152600401614bdb91906186b1565b60405180910390fd5b6000828660800151604051602001614bfd92919061965c565b6040516020818303038152906040528051906020012060001c90506000600f60008381526020019081526020016000205490506000801b8103614c6c576040517f3688124a00000000000000000000000000000000000000000000000000000000815260040160405180910390fd5b8186600001518760200151886040015189606001518a608001518b60a00151604051602001614ca19796959493929190619685565b604051602081830303815290604052805190602001208114614cef576040517fd529142c00000000000000000000000000000000000000000000000000000000815260040160405180910390fd5b6000614cfe8760000151615a45565b90506000801b8103614df6577f000000000000000000000000000000000000000000000000000000000000000073ffffffffffffffffffffffffffffffffffffffff1663e9413d3888600001516040518263ffffffff1660e01b8152600401614d67919061972c565b602060405180830381865afa158015614d84573d6000803e3d6000fd5b505050506040513d601f19601f82011682018060405250810190614da8919061975c565b90506000801b8103614df55786600001516040517f175dadad000000000000000000000000000000000000000000000000000000008152600401614dec919061972c565b60405180910390fd5b5b6000886080015182604051602001614e0f9291906197aa565b6040516020818303038152906040528051906020012060001c90506000614e368a83615b3d565b905060405180606001604052808781526020018681526020018281525097505050505050505092915050565b60008167ffffffffffffffff163a1115614ecd578215614e8e578167ffffffffffffffff169050614ed1565b3a826040517f86bca65a000000000000000000000000000000000000000000000000000000008152600401614ec49291906197d6565b60405180910390fd5b3a90505b92915050565b6000806000631fe543e360e01b8685604051602401614ef79291906197ff565b604051602081830303815290604052907bffffffffffffffffffffffffffffffffffffffffffffffffffffffff19166020820180517bffffffffffffffffffffffffffffffffffffffffffffffffffffffff838183161783525050505090506001600c60000160066101000a81548160ff021916908315150217905550614f8d856040015163ffffffff16866080015183615baa565b92506000600c60000160066101000a81548160ff02191690831515021790555050509392505050565b6000808315614fd557614fca868685615bf7565b600091509150614fe5565b614fe0868685615d6a565b915091505b94509492505050565b6000600660008381526020019081526020016000209050821561511d57600081600001600c9054906101000a90046bffffffffffffffffffffffff169050846bffffffffffffffffffffffff16816bffffffffffffffffffffffff161015615082576040517ff4d678b800000000000000000000000000000000000000000000000000000000815260040160405180910390fd5b848161508e9190618998565b82600001600c6101000a8154816bffffffffffffffffffffffff02191690836bffffffffffffffffffffffff16021790555084600b600c8282829054906101000a90046bffffffffffffffffffffffff166150e99190619029565b92506101000a8154816bffffffffffffffffffffffff02191690836bffffffffffffffffffffffff1602179055505061522b565b60008160000160009054906101000a90046bffffffffffffffffffffffff169050846bffffffffffffffffffffffff16816bffffffffffffffffffffffff161015615194576040517ff4d678b800000000000000000000000000000000000000000000000000000000815260040160405180910390fd5b84816151a09190618998565b8260000160006101000a8154816bffffffffffffffffffffffff02191690836bffffffffffffffffffffffff16021790555084600b60008282829054906101000a90046bffffffffffffffffffffffff166151fb9190619029565b92506101000a8154816bffffffffffffffffffffffff02191690836bffffffffffffffffffffffff160217905550505b50505050565b600080601180549050905060005b818110156152d4578373ffffffffffffffffffffffffffffffffffffffff166011828154811061527257615271618866565b5b9060005260206000200160009054906101000a900473ffffffffffffffffffffffffffffffffffffffff1673ffffffffffffffffffffffffffffffffffffffff16036152c3576001925050506152db565b806152cd90618927565b905061523f565b5060009150505b919050565b60008060006005600085815260200190815260200160002060020190506006600085815260200190815260200160002060000160009054906101000a90046bffffffffffffffffffffffff16925060066000858152602001908152602001600020600001600c9054906101000a90046bffffffffffffffffffffffff16915060008180549050905060005b8181101561545e576004600084838154811061538a57615389618866565b5b9060005260206000200160009054906101000a900473ffffffffffffffffffffffffffffffffffffffff1673ffffffffffffffffffffffffffffffffffffffff1673ffffffffffffffffffffffffffffffffffffffff1681526020019081526020016000206000878152602001908152602001600020600080820160006101000a81549060ff02191690556000820160016101000a81549067ffffffffffffffff02191690556000820160096101000a81549067ffffffffffffffff021916905550508061545790618927565b905061536b565b5060056000868152602001908152602001600020600080820160006101000a81549073ffffffffffffffffffffffffffffffffffffffff02191690556001820160006101000a81549073ffffffffffffffffffffffffffffffffffffffff02191690556002820160006154d19190617781565b505060066000868152602001908152602001600020600080820160006101000a8154906bffffffffffffffffffffffff021916905560008201600c6101000a8154906bffffffffffffffffffffffff02191690556000820160186101000a81549067ffffffffffffffff02191690555050615556856008615fd990919063ffffffff16565b506000846bffffffffffffffffffffffff16146155c55783600a60008282829054906101000a90046bffffffffffffffffffffffff166155969190618998565b92506101000a8154816bffffffffffffffffffffffff02191690836bffffffffffffffffffffffff1602179055505b6000836bffffffffffffffffffffffff16146156335782600a600c8282829054906101000a90046bffffffffffffffffffffffff166156049190618998565b92506101000a8154816bffffffffffffffffffffffff02191690836bffffffffffffffffffffffff1602179055505b5050915091565b600080600086868686604051602001615656949392919061982f565b6040516020818303038152906040528051906020012060001c9050868160405160200161568492919061965c565b6040516020818303038152906040528051906020012060001c81925092505094509492505050565b6156b46177a2565b600083839050036156d857604051806020016040528060001515815250905061579e565b7f92fd13387c7fe7befbc38d303d6468778fb9731bc4583f17d92989c6fcfdeaaa7bffffffffffffffffffffffffffffffffffffffffffffffffffffffff191683839061572591906198b8565b7bffffffffffffffffffffffffffffffffffffffffffffffffffffffff19161461577b576040517f5247fdce00000000000000000000000000000000000000000000000000000000815260040160405180910390fd5b8282600490809261578e93929190619921565b81019061579b9190619998565b90505b92915050565b60607f92fd13387c7fe7befbc38d303d6468778fb9731bc4583f17d92989c6fcfdeaaa826040516024016157d891906199f0565b604051602081830303815290604052907bffffffffffffffffffffffffffffffffffffffffffffffffffffffff19166020820180517bffffffffffffffffffffffffffffffffffffffffffffffffffffffff83818316178352505050509050919050565b60008046905061584b81615ff3565b156158c857606473ffffffffffffffffffffffffffffffffffffffff1663a3b1b31d6040518163ffffffff1660e01b8152600401602060405180830381865afa15801561589c573d6000803e3d6000fd5b505050506040513d601f19601f820116820180604052508101906158c0919061958c565b9150506158cd565b439150505b90565b60006158e2836000018360001b61601b565b905092915050565b60006158f88260000161608b565b9050919050565b600061590e836000018361609c565b60001c905092915050565b3373ffffffffffffffffffffffffffffffffffffffff168173ffffffffffffffffffffffffffffffffffffffff1603615987576040517f08c379a000000000000000000000000000000000000000000000000000000000815260040161597e90619a57565b60405180910390fd5b80600160006101000a81548173ffffffffffffffffffffffffffffffffffffffff021916908373ffffffffffffffffffffffffffffffffffffffff1602179055508073ffffffffffffffffffffffffffffffffffffffff1660008054906101000a900473ffffffffffffffffffffffffffffffffffffffff1673ffffffffffffffffffffffffffffffffffffffff167fed8889f560326eb138920d842192f0eb3dd22b4f139c87a2c57538e05bae127860405160405180910390a350565b600080469050615a5481615ff3565b15615b28576101008367ffffffffffffffff16615a6f61583c565b615a7991906188c4565b1180615a965750615a8861583c565b8367ffffffffffffffff1610155b15615aa5576000915050615b38565b606473ffffffffffffffffffffffffffffffffffffffff16632b407a82846040518263ffffffff1660e01b8152600401615adf919061972c565b602060405180830381865afa158015615afc573d6000803e3d6000fd5b505050506040513d601f19601f82011682018060405250810190615b20919061975c565b915050615b38565b8267ffffffffffffffff16409150505b919050565b6000615b718360000151846020015185604001518660600151868860a001518960c001518a60e001518b61010001516160c7565b60038360200151604051602001615b89929190619a77565b6040516020818303038152906040528051906020012060001c905092915050565b60005a611388811015615bbc57600080fd5b611388810390508460408204820311615bd457600080fd5b833b615bdf57600080fd5b6000808451602086016000888af19150509392505050565b600080615c486000368080601f016020809104026020016040519081016040528093929190818152602001838380828437600081840152601f19601f820116905080830192505050505050506162b4565b905060005a86600c600001600b9054906101000a900463ffffffff1663ffffffff16615c749190619069565b615c7e91906188c4565b85615c899190619aa0565b90506000600c600001600f9054906101000a900463ffffffff1663ffffffff1664e8d4a51000615cb99190619aa0565b90508415615d0e57806064600c60000160179054906101000a900460ff1660ff168486615ce69190619069565b615cf09190619aa0565b615cfa9190619b11565b615d049190619069565b9350505050615d63565b806064600c60000160179054906101000a900460ff166064615d309190619b42565b60ff168486615d3f9190619069565b615d499190619aa0565b615d539190619b11565b615d5d9190619069565b93505050505b9392505050565b600080600080615d78616428565b9150915060008213615dc157816040517f43d4cf66000000000000000000000000000000000000000000000000000000008152600401615db89190617918565b60405180910390fd5b6000615e116000368080601f016020809104026020016040519081016040528093929190818152602001838380828437600081840152601f19601f820116905080830192505050505050506162b4565b9050600083825a8b600c600001600b9054906101000a900463ffffffff1663ffffffff16615e3f9190619069565b615e4991906188c4565b8a615e549190619aa0565b615e5e9190619069565b670de0b6b3a7640000615e719190619aa0565b615e7b9190619b11565b90506000600c60000160139054906101000a900463ffffffff16600c600001600f9054906101000a900463ffffffff16615eb59190619b77565b63ffffffff1664e8d4a51000615ecb9190619aa0565b905060008582670de0b6b3a7640000615ee49190619aa0565b615eee9190619b11565b905060008915615f3757816064600c60000160189054906101000a900460ff1660ff1686615f1c9190619aa0565b615f269190619b11565b615f309190619069565b9050615f7e565b816064600c60000160189054906101000a900460ff166064615f599190619b42565b60ff1686615f679190619aa0565b615f719190619b11565b615f7b9190619069565b90505b6b033b2e3c9fd0803ce8000000811115615fc4576040517fe80fa38100000000000000000000000000000000000000000000000000000000815260040160405180910390fd5b80869850985050505050505050935093915050565b6000615feb836000018360001b616523565b905092915050565b600061a4b1821480616007575062066eed82145b80616014575062066eee82145b9050919050565b60006160278383616637565b616080578260000182908060018154018082558091505060019003906000526020600020016000909190919091505582600001805490508360010160008481526020019081526020016000208190555060019050616085565b600090505b92915050565b600081600001805490509050919050565b60008260000182815481106160b4576160b3618866565b5b9060005260206000200154905092915050565b6160d08961665a565b61610f576040517f08c379a000000000000000000000000000000000000000000000000000000000815260040161610690619bfb565b60405180910390fd5b6161188861665a565b616157576040517f08c379a000000000000000000000000000000000000000000000000000000000815260040161614e90619c67565b60405180910390fd5b6161608361665a565b61619f576040517f08c379a000000000000000000000000000000000000000000000000000000000815260040161619690619cd3565b60405180910390fd5b6161a88261665a565b6161e7576040517f08c379a00000000000000000000000000000000000000000000000000000000081526004016161de90619d3f565b60405180910390fd5b6161f3878a88876167db565b616232576040517f08c379a000000000000000000000000000000000000000000000000000000000815260040161622990619dab565b60405180910390fd5b600061623e8a876169f8565b90506000616251898b878b868989616a8a565b90506000616262838d8d8a86616c10565b9050808a146162a6576040517f08c379a000000000000000000000000000000000000000000000000000000000815260040161629d90619e17565b60405180910390fd5b505050505050505050505050565b6000804690506162c381615ff3565b1561634057606c73ffffffffffffffffffffffffffffffffffffffff1663c6f7de0e6040518163ffffffff1660e01b8152600401602060405180830381865afa158015616314573d6000803e3d6000fd5b505050506040513d601f19601f82011682018060405250810190616338919061958c565b915050616423565b61634981616c52565b1561641d5773420000000000000000000000000000000000000f73ffffffffffffffffffffffffffffffffffffffff166349948e0e8460405180608001604052806048815260200161a50d604891396040516020016163a9929190619e68565b6040516020818303038152906040526040518263ffffffff1660e01b81526004016163d49190618e20565b602060405180830381865afa1580156163f1573d6000803e3d6000fd5b505050506040513d601f19601f82011682018060405250810190616415919061958c565b915050616423565b60009150505b919050565b6000806000600c60000160079054906101000a900463ffffffff1690506000600360009054906101000a900473ffffffffffffffffffffffffffffffffffffffff1673ffffffffffffffffffffffffffffffffffffffff1663feaf968c6040518163ffffffff1660e01b815260040160a060405180830381865afa1580156164b4573d6000803e3d6000fd5b505050506040513d601f19601f820116820180604052508101906164d89190619ee3565b909192935090915050809250819550505060008263ffffffff1611801561650f5750804261650691906188c4565b8263ffffffff16105b9250821561651d5760105493505b50509091565b6000808360010160008481526020019081526020016000205490506000811461662b57600060018261655591906188c4565b905060006001866000018054905061656d91906188c4565b90508181146165dc57600086600001828154811061658e5761658d618866565b5b90600052602060002001549050808760000184815481106165b2576165b1618866565b5b90600052602060002001819055508387600101600083815260200190815260200160002081905550505b856000018054806165f0576165ef6188f8565b5b600190038181906000526020600020016000905590558560010160008681526020019081526020016000206000905560019350505050616631565b60009150505b92915050565b600080836001016000848152602001908152602001600020541415905092915050565b60007ffffffffffffffffffffffffffffffffffffffffffffffffffffffffefffffc2f8260006002811061669157616690618866565b5b6020020151106166d6576040517f08c379a00000000000000000000000000000000000000000000000000000000081526004016166cd90619faa565b60405180910390fd5b7ffffffffffffffffffffffffffffffffffffffffffffffffffffffffefffffc2f8260016002811061670b5761670a618866565b5b602002015110616750576040517f08c379a00000000000000000000000000000000000000000000000000000000081526004016167479061a016565b60405180910390fd5b7ffffffffffffffffffffffffffffffffffffffffffffffffffffffffefffffc2f8061677f5761677e619ae2565b5b8260016002811061679357616792618866565b5b6020020151836001600281106167ac576167ab618866565b5b6020020151096167d3836000600281106167c9576167c8618866565b5b6020020151616c91565b149050919050565b60008073ffffffffffffffffffffffffffffffffffffffff168273ffffffffffffffffffffffffffffffffffffffff160361684b576040517f08c379a00000000000000000000000000000000000000000000000000000000081526004016168429061a082565b60405180910390fd5b60008060028660016002811061686457616863618866565b5b60200201518161687757616876619ae2565b5b061461688457601c616887565b601b5b905060007ffffffffffffffffffffffffffffffffebaaedce6af48a03bbfd25e8cd0364141806168ba576168b9619ae2565b5b85876000600281106168cf576168ce618866565b5b6020020151097ffffffffffffffffffffffffffffffffebaaedce6af48a03bbfd25e8cd03641410360001b905060007ffffffffffffffffffffffffffffffffebaaedce6af48a03bbfd25e8cd03641418061692d5761692c619ae2565b5b8760006002811061694157616940618866565b5b6020020151890960001b90506000600183858a60006002811061696757616966618866565b5b602002015160001b856040516000815260200160405260405161698d949392919061a0a2565b6020604051602081039080840390855afa1580156169af573d6000803e3d6000fd5b5050506020604051035190508573ffffffffffffffffffffffffffffffffffffffff168173ffffffffffffffffffffffffffffffffffffffff1614945050505050949350505050565b616a006177b7565b616a2d60018484604051602001616a199392919061a170565b604051602081830303815290604052616d34565b90505b616a398161665a565b616a8457616a7d81600060028110616a5457616a53618866565b5b6020020151604051602001616a69919061a1ad565b604051602081830303815290604052616d34565b9050616a30565b92915050565b616a926177b7565b7ffffffffffffffffffffffffffffffffffffffffffffffffffffffffefffffc2f83600060028110616ac757616ac6618866565b5b602002015181616ada57616ad9619ae2565b5b067ffffffffffffffffffffffffffffffffffffffffffffffffffffffffefffffc2f87600060028110616b1057616b0f618866565b5b602002015181616b2357616b22619ae2565b5b0603616b64576040517f08c379a0000000000000000000000000000000000000000000000000000000008152600401616b5b9061a214565b60405180910390fd5b616b6f878988616e37565b616bae576040517f08c379a0000000000000000000000000000000000000000000000000000000008152600401616ba59061a280565b60405180910390fd5b616bb9848685616e37565b616bf8576040517f08c379a0000000000000000000000000000000000000000000000000000000008152600401616bef9061a2ec565b60405180910390fd5b616c03868484616fce565b9050979650505050505050565b600060028686868587604051602001616c2e9695949392919061a30c565b6040516020818303038152906040528051906020012060001c905095945050505050565b6000600a821480616c6457506101a482145b80616c71575062aa37dc82145b80616c7d575061210582145b80616c8a575062014a3382145b9050919050565b6000807ffffffffffffffffffffffffffffffffffffffffffffffffffffffffefffffc2f80616cc357616cc2619ae2565b5b7ffffffffffffffffffffffffffffffffffffffffffffffffffffffffefffffc2f80616cf257616cf1619ae2565b5b848509840990507ffffffffffffffffffffffffffffffffffffffffffffffffffffffffefffffc2f80616d2857616d27619ae2565b5b60078208915050919050565b616d3c6177b7565b616d458261714a565b81600060028110616d5957616d58618866565b5b602002018181525050616d8b616d8682600060028110616d7c57616d7b618866565b5b6020020151616c91565b6171b7565b81600160028110616d9f57616d9e618866565b5b6020020181815250506001600282600160028110616dc057616dbf618866565b5b602002015181616dd357616dd2619ae2565b5b0603616e325780600160028110616ded57616dec618866565b5b60200201517ffffffffffffffffffffffffffffffffffffffffffffffffffffffffefffffc2f0381600160028110616e2857616e27618866565b5b6020020181815250505b919050565b6000808303616e7b576040517f08c379a0000000000000000000000000000000000000000000000000000000008152600401616e729061a3c8565b60405180910390fd5b600084600060028110616e9157616e90618866565b5b60200201519050600080600287600160028110616eb157616eb0618866565b5b6020020151616ec0919061a3e8565b14616ecc57601c616ecf565b601b5b905060007ffffffffffffffffffffffffffffffffebaaedce6af48a03bbfd25e8cd036414180616f0257616f01619ae2565b5b83870960001b9050600060016000801b848660001b8560405160008152602001604052604051616f35949392919061a0a2565b6020604051602081039080840390855afa158015616f57573d6000803e3d6000fd5b505050602060405103519050600086604051602001616f76919061a419565b6040516020818303038152906040528051906020012060001c90508073ffffffffffffffffffffffffffffffffffffffff168273ffffffffffffffffffffffffffffffffffffffff1614955050505050509392505050565b616fd66177b7565b600080600061704787600060028110616ff257616ff1618866565b5b60200201518860016002811061700b5761700a618866565b5b60200201518860006002811061702457617023618866565b5b60200201518960016002811061703d5761703c618866565b5b60200201516171fa565b80935081945082955050505060017ffffffffffffffffffffffffffffffffffffffffffffffffffffffffefffffc2f8061708457617083619ae2565b5b868309146170c7576040517f08c379a00000000000000000000000000000000000000000000000000000000081526004016170be9061a480565b60405180910390fd5b60405180604001604052807ffffffffffffffffffffffffffffffffffffffffffffffffffffffffefffffc2f8061710157617100619ae2565b5b87860981526020017ffffffffffffffffffffffffffffffffffffffffffffffffffffffffefffffc2f8061713857617137619ae2565b5b87850981525093505050509392505050565b6000818051906020012060001c90505b7ffffffffffffffffffffffffffffffffffffffffffffffffffffffffefffffc2f81106171b25780604051602001617192919061a1ad565b6040516020818303038152906040528051906020012060001c905061715a565b919050565b60006171f382600260017ffffffffffffffffffffffffffffffffffffffffffffffffffffffffefffffc2f6171ec9190619069565b901c6173f1565b9050919050565b60008060008060006001809150915060007ffffffffffffffffffffffffffffffffffffffffffffffffffffffffefffffc2f8061723a57617239619ae2565b5b897ffffffffffffffffffffffffffffffffffffffffffffffffffffffffefffffc2f038808905060007ffffffffffffffffffffffffffffffffffffffffffffffffffffffffefffffc2f8061729257617291619ae2565b5b8b7ffffffffffffffffffffffffffffffffffffffffffffffffffffffffefffffc2f038a08905060006172c783838585617550565b80925081995050506172db88828e886175c8565b80925081995050506172ef88828c876175c8565b809250819950505060006173058d878b856175c8565b809250819950505061731988828686617550565b809250819950505061732d88828e896175c8565b80925081995050508082146173dd577ffffffffffffffffffffffffffffffffffffffffffffffffffffffffefffffc2f8061736b5761736a619ae2565b5b818a0998507ffffffffffffffffffffffffffffffffffffffffffffffffffffffffefffffc2f8061739f5761739e619ae2565b5b82890997507ffffffffffffffffffffffffffffffffffffffffffffffffffffffffefffffc2f806173d3576173d2619ae2565b5b81830996506173e1565b8196505b5050505050509450945094915050565b6000806173fc6177d9565b60208160006006811061741257617411618866565b5b60200201818152505060208160016006811061743157617430618866565b5b6020020181815250506020816002600681106174505761744f618866565b5b602002018181525050848160036006811061746e5761746d618866565b5b602002018181525050838160046006811061748c5761748b618866565b5b6020020181815250507ffffffffffffffffffffffffffffffffffffffffffffffffffffffffefffffc2f816005600681106174ca576174c9618866565b5b6020020181815250506174db6177fb565b60208160c0846005600019fa92506000830361752c576040517f08c379a00000000000000000000000000000000000000000000000000000000081526004016175239061a4ec565b60405180910390fd5b806000600181106175405761753f618866565b5b6020020151935050505092915050565b6000807ffffffffffffffffffffffffffffffffffffffffffffffffffffffffefffffc2f8061758257617581619ae2565b5b8487097ffffffffffffffffffffffffffffffffffffffffffffffffffffffffefffffc2f806175b4576175b3619ae2565b5b848709809250819350505094509492505050565b60008060007ffffffffffffffffffffffffffffffffffffffffffffffffffffffffefffffc2f806175fc576175fb619ae2565b5b878509905060007ffffffffffffffffffffffffffffffffffffffffffffffffffffffffefffffc2f8061763257617631619ae2565b5b87877ffffffffffffffffffffffffffffffffffffffffffffffffffffffffefffffc2f030990507ffffffffffffffffffffffffffffffffffffffffffffffffffffffffefffffc2f8061768857617687619ae2565b5b8183087ffffffffffffffffffffffffffffffffffffffffffffffffffffffffefffffc2f806176ba576176b9619ae2565b5b8689098094508195505050505094509492505050565b828054828255906000526020600020908101928215617749579160200282015b828111156177485782518260006101000a81548173ffffffffffffffffffffffffffffffffffffffff021916908373ffffffffffffffffffffffffffffffffffffffff160217905550916020019190600101906176f0565b5b509050617756919061781d565b5090565b604051806060016040528061776d61783a565b815260200160008152602001600081525090565b508054600082559060005260206000209081019061779f919061781d565b50565b60405180602001604052806000151581525090565b6040518060400160405280600290602082028036833780820191505090505090565b6040518060c00160405280600690602082028036833780820191505090505090565b6040518060200160405280600190602082028036833780820191505090505090565b5b8082111561783657600081600090555060010161781e565b5090565b6040518060400160405280600015158152602001600067ffffffffffffffff1681525090565b6000604051905090565b600080fd5b600080fd5b600073ffffffffffffffffffffffffffffffffffffffff82169050919050565b600061789f82617874565b9050919050565b6178af81617894565b81146178ba57600080fd5b50565b6000813590506178cc816178a6565b92915050565b6000602082840312156178e8576178e761786a565b5b60006178f6848285016178bd565b91505092915050565b6000819050919050565b617912816178ff565b82525050565b600060208201905061792d6000830184617909565b92915050565b600061ffff82169050919050565b61794a81617933565b82525050565b600063ffffffff82169050919050565b61796981617950565b82525050565b60008115159050919050565b6179848161796f565b82525050565b600060ff82169050919050565b6179a08161798a565b82525050565b6000610120820190506179bc600083018c617941565b6179c9602083018b617960565b6179d6604083018a61797b565b6179e36060830189617960565b6179f06080830188617960565b6179fd60a0830187617960565b617a0a60c0830186617960565b617a1760e0830185617997565b617a25610100830184617997565b9a9950505050505050505050565b600080fd5b600081905082602060020282011115617a5457617a53617a33565b5b92915050565b600060408284031215617a7057617a6f61786a565b5b6000617a7e84828501617a38565b91505092915050565b6000819050919050565b617a9a81617a87565b8114617aa557600080fd5b50565b600081359050617ab781617a91565b92915050565b60008060408385031215617ad457617ad361786a565b5b6000617ae285828601617aa8565b9250506020617af3858286016178bd565b9150509250929050565b6000602082019050617b126000830184617941565b92915050565b60006bffffffffffffffffffffffff82169050919050565b617b3981617b18565b82525050565b6000602082019050617b546000830184617b30565b92915050565b6000819050919050565b6000617b7f617b7a617b7584617874565b617b5a565b617874565b9050919050565b6000617b9182617b64565b9050919050565b6000617ba382617b86565b9050919050565b617bb381617b98565b82525050565b6000602082019050617bce6000830184617baa565b92915050565b6000617bdf82617874565b9050919050565b617bef81617bd4565b8114617bfa57600080fd5b50565b600081359050617c0c81617be6565b92915050565b600060208284031215617c2857617c2761786a565b5b6000617c3684828501617bfd565b91505092915050565b600080fd5b6000601f19601f8301169050919050565b7f4e487b7100000000000000000000000000000000000000000000000000000000600052604160045260246000fd5b617c8d82617c44565b810181811067ffffffffffffffff82111715617cac57617cab617c55565b5b80604052505050565b6000617cbf617860565b9050617ccb8282617c84565b919050565b600080fd5b600080fd5b600067ffffffffffffffff821115617cf557617cf4617c55565b5b602082029050919050565b6000617d13617d0e84617cda565b617cb5565b90508060208402830185811115617d2d57617d2c617a33565b5b835b81811015617d565780617d428882617aa8565b845260208401935050602081019050617d2f565b5050509392505050565b600082601f830112617d7557617d74617cd5565b5b6002617d82848285617d00565b91505092915050565b60006101a08284031215617da257617da1617c3f565b5b617dad610120617cb5565b90506000617dbd84828501617d60565b6000830152506040617dd184828501617d60565b6020830152506080617de584828501617aa8565b60408301525060a0617df984828501617aa8565b60608301525060c0617e0d84828501617aa8565b60808301525060e0617e21848285016178bd565b60a083015250610100617e3684828501617d60565b60c083015250610140617e4b84828501617d60565b60e083015250610180617e6084828501617aa8565b6101008301525092915050565b600067ffffffffffffffff82169050919050565b617e8a81617e6d565b8114617e9557600080fd5b50565b600081359050617ea781617e81565b92915050565b617eb681617950565b8114617ec157600080fd5b50565b600081359050617ed381617ead565b92915050565b600080fd5b600067ffffffffffffffff821115617ef957617ef8617c55565b5b617f0282617c44565b9050602081019050919050565b82818337600083830152505050565b6000617f31617f2c84617ede565b617cb5565b905082815260208101848484011115617f4d57617f4c617ed9565b5b617f58848285617f0f565b509392505050565b600082601f830112617f7557617f74617cd5565b5b8135617f85848260208601617f1e565b91505092915050565b600060c08284031215617fa457617fa3617c3f565b5b617fae60c0617cb5565b90506000617fbe84828501617e98565b6000830152506020617fd284828501617aa8565b6020830152506040617fe684828501617ec4565b6040830152506060617ffa84828501617ec4565b606083015250608061800e848285016178bd565b60808301525060a082013567ffffffffffffffff81111561803257618031617cd0565b5b61803e84828501617f60565b60a08301525092915050565b6180538161796f565b811461805e57600080fd5b50565b6000813590506180708161804a565b92915050565b60008060006101e084860312156180905761808f61786a565b5b600061809e86828701617d8b565b9350506101a084013567ffffffffffffffff8111156180c0576180bf61786f565b5b6180cc86828701617f8e565b9250506101c06180de86828701618061565b9150509250925092565b60006020820190506180fd6000830184617960565b92915050565b6000602082840312156181195761811861786a565b5b600061812784828501617aa8565b91505092915050565b6000602082019050618145600083018461797b565b92915050565b600080604083850312156181625761816161786a565b5b6000618170858286016178bd565b9250506020618181858286016178bd565b9150509250929050565b600061819682617b86565b9050919050565b6181a68161818b565b82525050565b60006020820190506181c1600083018461819d565b92915050565b60006181d282617b86565b9050919050565b6181e2816181c7565b82525050565b60006020820190506181fd60008301846181d9565b92915050565b6000806060838503121561821a5761821961786a565b5b600061822885828601617a38565b925050604061823985828601617e98565b9150509250929050565b61824c81617894565b82525050565b60006020820190506182676000830184618243565b92915050565b600080fd5b600060c082840312156182885761828761826d565b5b81905092915050565b6000602082840312156182a7576182a661786a565b5b600082013567ffffffffffffffff8111156182c5576182c461786f565b5b6182d184828501618272565b91505092915050565b6182e381617a87565b82525050565b60006020820190506182fe60008301846182da565b92915050565b61830d81617e6d565b82525050565b60006020820190506183286000830184618304565b92915050565b600080fd5b60008083601f84011261834957618348617cd5565b5b8235905067ffffffffffffffff8111156183665761836561832e565b5b60208301915083600182028301111561838257618381617a33565b5b9250929050565b600080600080606085870312156183a3576183a261786a565b5b60006183b1878288016178bd565b94505060206183c287828801617aa8565b935050604085013567ffffffffffffffff8111156183e3576183e261786f565b5b6183ef87828801618333565b925092505092959194509250565b61840681617933565b811461841157600080fd5b50565b600081359050618423816183fd565b92915050565b618432816178ff565b811461843d57600080fd5b50565b60008135905061844f81618429565b92915050565b61845e8161798a565b811461846957600080fd5b50565b60008135905061847b81618455565b92915050565b60008060008060008060008060006101208a8c0312156184a4576184a361786a565b5b60006184b28c828d01618414565b99505060206184c38c828d01617ec4565b98505060406184d48c828d01617ec4565b97505060606184e58c828d01617ec4565b96505060806184f68c828d01618440565b95505060a06185078c828d01617ec4565b94505060c06185188c828d01617ec4565b93505060e06185298c828d0161846c565b92505061010061853b8c828d0161846c565b9150509295985092959850929598565b600080604083850312156185625761856161786a565b5b600061857085828601617aa8565b925050602061858185828601617aa8565b9150509250929050565b600081519050919050565b600082825260208201905092915050565b6000819050602082019050919050565b6185c081617a87565b82525050565b60006185d283836185b7565b60208301905092915050565b6000602082019050919050565b60006185f68261858b565b6186008185618596565b935061860b836185a7565b8060005b8381101561863c57815161862388826185c6565b975061862e836185de565b92505060018101905061860f565b5085935050505092915050565b6000602082019050818103600083015261866381846185eb565b905092915050565b6000604082840312156186815761868061786a565b5b600061868f84828501617d60565b91505092915050565b6000819050919050565b6186ab81618698565b82525050565b60006020820190506186c660008301846186a2565b92915050565b6186d581618698565b81146186e057600080fd5b50565b6000813590506186f2816186cc565b92915050565b60006020828403121561870e5761870d61786a565b5b600061871c848285016186e3565b91505092915050565b600060408201905061873a600083018561797b565b6187476020830184618304565b9392505050565b600081519050919050565b600082825260208201905092915050565b6000819050602082019050919050565b61878381617894565b82525050565b6000618795838361877a565b60208301905092915050565b6000602082019050919050565b60006187b98261874e565b6187c38185618759565b93506187ce8361876a565b8060005b838110156187ff5781516187e68882618789565b97506187f1836187a1565b9250506001810190506187d2565b5085935050505092915050565b600060a0820190506188216000830188617b30565b61882e6020830187617b30565b61883b6040830186618304565b6188486060830185618243565b818103608083015261885a81846187ae565b90509695505050505050565b7f4e487b7100000000000000000000000000000000000000000000000000000000600052603260045260246000fd5b7f4e487b7100000000000000000000000000000000000000000000000000000000600052601160045260246000fd5b60006188cf82617a87565b91506188da83617a87565b92508282039050818111156188f2576188f1618895565b5b92915050565b7f4e487b7100000000000000000000000000000000000000000000000000000000600052603160045260246000fd5b600061893282617a87565b91507fffffffffffffffffffffffffffffffffffffffffffffffffffffffffffffffff820361896457618963618895565b5b600182019050919050565b600060408201905061898460008301856186a2565b6189916020830184618304565b9392505050565b60006189a382617b18565b91506189ae83617b18565b925082820390506bffffffffffffffffffffffff8111156189d2576189d1618895565b5b92915050565b600081905092915050565b50565b60006189f36000836189d8565b91506189fe826189e3565b600082019050919050565b6000618a14826189e6565b9150819050919050565b6000819050919050565b6000618a43618a3e618a3984618a1e565b617b5a565b617950565b9050919050565b618a5381618a28565b82525050565b6000604082019050618a6e60008301856182da565b618a7b6020830184618a4a565b9392505050565b6000604082019050618a9760008301856182da565b618aa460208301846182da565b9392505050565b6000618ab682617e6d565b915067ffffffffffffffff8203618ad057618acf618895565b5b600182019050919050565b6000618ae682617e6d565b915060008203618af957618af8618895565b5b600182039050919050565b6000604082019050618b1960008301856182da565b618b266020830184617909565b9392505050565b600060a082019050618b4260008301886182da565b618b4f6020830187617b30565b618b5c604083018661797b565b618b69606083018561797b565b618b76608083018461797b565b9695505050505050565b600082825260208201905092915050565b7f4e6f7420737562736372697074696f6e206f776e657200000000000000000000600082015250565b6000618bc7601683618b80565b9150618bd282618b91565b602082019050919050565b60006020820190508181036000830152618bf681618bba565b9050919050565b7f50656e64696e6720726571756573742065786973747300000000000000000000600082015250565b6000618c33601683618b80565b9150618c3e82618bfd565b602082019050919050565b60006020820190508181036000830152618c6281618c26565b9050919050565b618c728161798a565b82525050565b600082825260208201905092915050565b6000618c948261874e565b618c9e8185618c78565b9350618ca98361876a565b8060005b83811015618cda578151618cc18882618789565b9750618ccc836187a1565b925050600181019050618cad565b5085935050505092915050565b618cf081617b18565b82525050565b600060c083016000830151618d0e6000860182618c69565b506020830151618d2160208601826185b7565b506040830151618d34604086018261877a565b5060608301518482036060860152618d4c8282618c89565b9150506080830151618d616080860182618ce7565b5060a0830151618d7460a0860182618ce7565b508091505092915050565b60006020820190508181036000830152618d998184618cf6565b905092915050565b600081519050919050565b600082825260208201905092915050565b60005b83811015618ddb578082015181840152602081019050618dc0565b60008484015250505050565b6000618df282618da1565b618dfc8185618dac565b9350618e0c818560208601618dbd565b618e1581617c44565b840191505092915050565b60006020820190508181036000830152618e3a8184618de7565b905092915050565b6000618e5d618e58618e5384617b18565b617b5a565b617a87565b9050919050565b618e6d81618e42565b82525050565b6000604082019050618e886000830185618243565b618e956020830184618e64565b9392505050565b600081519050618eab8161804a565b92915050565b600060208284031215618ec757618ec661786a565b5b6000618ed584828501618e9c565b91505092915050565b7f696e73756666696369656e742066756e64730000000000000000000000000000600082015250565b6000618f14601283618b80565b9150618f1f82618ede565b602082019050919050565b60006020820190508181036000830152618f4381618f07565b9050919050565b6000604082019050618f5f6000830185618243565b618f6c60208301846182da565b9392505050565b7f4d7573742062652070726f706f736564206f776e657200000000000000000000600082015250565b6000618fa9601683618b80565b9150618fb482618f73565b602082019050919050565b60006020820190508181036000830152618fd881618f9c565b9050919050565b6000618fea82617b86565b9050919050565b618ffa81618fdf565b82525050565b60006040820190506190156000830185618ff1565b61902260208301846182da565b9392505050565b600061903482617b18565b915061903f83617b18565b925082820190506bffffffffffffffffffffffff81111561906357619062618895565b5b92915050565b600061907482617a87565b915061907f83617a87565b925082820190508082111561909757619096618895565b5b92915050565b60006040820190506190b260008301856182da565b6190bf6020830184618243565b9392505050565b6000602082840312156190dc576190db61786a565b5b60006190ea84828501618414565b91505092915050565b60006060820190506191086000830186617941565b6191156020830185617941565b6191226040830184617941565b949350505050565b6000602082840312156191405761913f61786a565b5b600061914e84828501617ec4565b91505092915050565b600060408201905061916c6000830185617960565b6191796020830184617960565b9392505050565b600080fd5b600080fd5b600080fd5b600080833560016020038436030381126191ac576191ab619180565b5b80840192508235915067ffffffffffffffff8211156191ce576191cd619185565b5b6020830192506001820236038313156191ea576191e961918a565b5b509250929050565b600060e082019050619207600083018a6182da565b61921460208301896182da565b61922160408301886182da565b61922e6060830187617960565b61923b6080830186617960565b61924860a0830185618243565b81810360c083015261925a8184618de7565b905098975050505050505050565b600060c08201905061927d60008301896182da565b61928a60208301886182da565b6192976040830187617941565b6192a46060830186617960565b6192b16080830185617960565b81810360a08301526192c38184618de7565b9050979650505050505050565b60008160601b9050919050565b60006192e8826192d0565b9050919050565b60006192fa826192dd565b9050919050565b61931261930d82617894565b6192ef565b82525050565b6000819050919050565b61933361932e82618698565b619318565b82525050565b60008160c01b9050919050565b600061935182619339565b9050919050565b61936961936482617e6d565b619346565b82525050565b600061937b8287619301565b60148201915061938b8286619322565b60208201915061939b8285619301565b6014820191506193ab8284619358565b60088201915081905095945050505050565b60006193c882617e6d565b91506193d383617e6d565b9250828201905067ffffffffffffffff8111156193f3576193f2618895565b5b92915050565b600060408201905061940e6000830185617997565b61941b6020830184617997565b9392505050565b600061012082019050619438600083018c617941565b619445602083018b617960565b619452604083018a617960565b61945f6060830189617960565b61946c6080830188617909565b61947960a0830187617960565b61948660c0830186617960565b61949360e0830185617997565b6194a1610100830184617997565b9a9950505050505050505050565b60006040820190506194c46000830185618243565b6194d16020830184618243565b9392505050565b600060029050919050565b600081905092915050565b6000819050919050565b6000602082019050919050565b61950e816194d8565b61951881846194e3565b9250619523826194ee565b8060005b8381101561955457815161953b87826185c6565b9650619546836194f8565b925050600181019050619527565b505050505050565b60006040820190506195716000830184619505565b92915050565b60008151905061958681617a91565b92915050565b6000602082840312156195a2576195a161786a565b5b60006195b084828501619577565b91505092915050565b7f4f6e6c792063616c6c61626c65206279206f776e657200000000000000000000600082015250565b60006195ef601683618b80565b91506195fa826195b9565b602082019050919050565b6000602082019050818103600083015261961e816195e2565b9050919050565b600060608201905061963a6000830186618243565b6196476020830185618e64565b6196546040830184618e64565b949350505050565b600060408201905061967160008301856186a2565b61967e60208301846182da565b9392505050565b600060e08201905061969a600083018a6182da565b6196a76020830189618304565b6196b460408301886182da565b6196c16060830187617960565b6196ce6080830186617960565b6196db60a0830185618243565b81810360c08301526196ed8184618de7565b905098975050505050505050565b600061971661971161970c84617e6d565b617b5a565b617a87565b9050919050565b619726816196fb565b82525050565b6000602082019050619741600083018461971d565b92915050565b600081519050619756816186cc565b92915050565b6000602082840312156197725761977161786a565b5b600061978084828501619747565b91505092915050565b6000819050919050565b6197a461979f82617a87565b619789565b82525050565b60006197b68285619793565b6020820191506197c68284619322565b6020820191508190509392505050565b60006040820190506197eb60008301856182da565b6197f8602083018461971d565b9392505050565b600060408201905061981460008301856182da565b818103602083015261982681846185eb565b90509392505050565b600060808201905061984460008301876186a2565b6198516020830186618243565b61985e60408301856182da565b61986b6060830184618304565b95945050505050565b600082905092915050565b60007fffffffff0000000000000000000000000000000000000000000000000000000082169050919050565b600082821b905092915050565b60006198c48383619874565b826198cf813561987f565b9250600482101561990f5761990a7fffffffff00000000000000000000000000000000000000000000000000000000836004036008026198ab565b831692505b505092915050565b600080fd5b600080fd5b6000808585111561993557619934619917565b5b838611156199465761994561991c565b5b6001850283019150848603905094509492505050565b60006020828403121561997257619971617c3f565b5b61997c6020617cb5565b9050600061998c84828501618061565b60008301525092915050565b6000602082840312156199ae576199ad61786a565b5b60006199bc8482850161995c565b91505092915050565b6199ce8161796f565b82525050565b6020820160008201516199ea60008501826199c5565b50505050565b6000602082019050619a0560008301846199d4565b92915050565b7f43616e6e6f74207472616e7366657220746f2073656c66000000000000000000600082015250565b6000619a41601783618b80565b9150619a4c82619a0b565b602082019050919050565b60006020820190508181036000830152619a7081619a34565b9050919050565b6000606082019050619a8c60008301856182da565b619a996020830184619505565b9392505050565b6000619aab82617a87565b9150619ab683617a87565b9250828202619ac481617a87565b91508282048414831517619adb57619ada618895565b5b5092915050565b7f4e487b7100000000000000000000000000000000000000000000000000000000600052601260045260246000fd5b6000619b1c82617a87565b9150619b2783617a87565b925082619b3757619b36619ae2565b5b828204905092915050565b6000619b4d8261798a565b9150619b588361798a565b9250828201905060ff811115619b7157619b70618895565b5b92915050565b6000619b8282617950565b9150619b8d83617950565b9250828203905063ffffffff811115619ba957619ba8618895565b5b92915050565b7f7075626c6963206b6579206973206e6f74206f6e206375727665000000000000600082015250565b6000619be5601a83618b80565b9150619bf082619baf565b602082019050919050565b60006020820190508181036000830152619c1481619bd8565b9050919050565b7f67616d6d61206973206e6f74206f6e2063757276650000000000000000000000600082015250565b6000619c51601583618b80565b9150619c5c82619c1b565b602082019050919050565b60006020820190508181036000830152619c8081619c44565b9050919050565b7f6347616d6d615769746e657373206973206e6f74206f6e206375727665000000600082015250565b6000619cbd601d83618b80565b9150619cc882619c87565b602082019050919050565b60006020820190508181036000830152619cec81619cb0565b9050919050565b7f73486173685769746e657373206973206e6f74206f6e20637572766500000000600082015250565b6000619d29601c83618b80565b9150619d3482619cf3565b602082019050919050565b60006020820190508181036000830152619d5881619d1c565b9050919050565b7f6164647228632a706b2b732a6729213d5f755769746e65737300000000000000600082015250565b6000619d95601983618b80565b9150619da082619d5f565b602082019050919050565b60006020820190508181036000830152619dc481619d88565b9050919050565b7f696e76616c69642070726f6f6600000000000000000000000000000000000000600082015250565b6000619e01600d83618b80565b9150619e0c82619dcb565b602082019050919050565b60006020820190508181036000830152619e3081619df4565b9050919050565b6000619e4282618da1565b619e4c81856189d8565b9350619e5c818560208601618dbd565b80840191505092915050565b6000619e748285619e37565b9150619e808284619e37565b91508190509392505050565b600069ffffffffffffffffffff82169050919050565b619eab81619e8c565b8114619eb657600080fd5b50565b600081519050619ec881619ea2565b92915050565b600081519050619edd81618429565b92915050565b600080600080600060a08688031215619eff57619efe61786a565b5b6000619f0d88828901619eb9565b9550506020619f1e88828901619ece565b9450506040619f2f88828901619577565b9350506060619f4088828901619577565b9250506080619f5188828901619eb9565b9150509295509295909350565b7f696e76616c696420782d6f7264696e6174650000000000000000000000000000600082015250565b6000619f94601283618b80565b9150619f9f82619f5e565b602082019050919050565b60006020820190508181036000830152619fc381619f87565b9050919050565b7f696e76616c696420792d6f7264696e6174650000000000000000000000000000600082015250565b600061a000601283618b80565b915061a00b82619fca565b602082019050919050565b6000602082019050818103600083015261a02f81619ff3565b9050919050565b7f626164207769746e657373000000000000000000000000000000000000000000600082015250565b600061a06c600b83618b80565b915061a0778261a036565b602082019050919050565b6000602082019050818103600083015261a09b8161a05f565b9050919050565b600060808201905061a0b760008301876186a2565b61a0c46020830186617997565b61a0d160408301856186a2565b61a0de60608301846186a2565b95945050505050565b600081905092915050565b61a0fb81617a87565b82525050565b600061a10d838361a0f2565b60208301905092915050565b61a122816194d8565b61a12c818461a0e7565b925061a137826194ee565b8060005b8381101561a16857815161a14f878261a101565b965061a15a836194f8565b92505060018101905061a13b565b505050505050565b600061a17c8286619793565b60208201915061a18c828561a119565b60408201915061a19c8284619793565b602082019150819050949350505050565b600061a1b98284619793565b60208201915081905092915050565b7f706f696e747320696e2073756d206d7573742062652064697374696e63740000600082015250565b600061a1fe601e83618b80565b915061a2098261a1c8565b602082019050919050565b6000602082019050818103600083015261a22d8161a1f1565b9050919050565b7f4669727374206d756c20636865636b206661696c656400000000000000000000600082015250565b600061a26a601683618b80565b915061a2758261a234565b602082019050919050565b6000602082019050818103600083015261a2998161a25d565b9050919050565b7f5365636f6e64206d756c20636865636b206661696c6564000000000000000000600082015250565b600061a2d6601783618b80565b915061a2e18261a2a0565b602082019050919050565b6000602082019050818103600083015261a3058161a2c9565b9050919050565b600061a3188289619793565b60208201915061a328828861a119565b60408201915061a338828761a119565b60408201915061a348828661a119565b60408201915061a358828561a119565b60408201915061a3688284619301565b601482019150819050979650505050505050565b7f7a65726f207363616c6172000000000000000000000000000000000000000000600082015250565b600061a3b2600b83618b80565b915061a3bd8261a37c565b602082019050919050565b6000602082019050818103600083015261a3e18161a3a5565b9050919050565b600061a3f382617a87565b915061a3fe83617a87565b92508261a40e5761a40d619ae2565b5b828206905092915050565b600061a425828461a119565b60408201915081905092915050565b7f696e765a206d75737420626520696e7665727365206f66207a00000000000000600082015250565b600061a46a601983618b80565b915061a4758261a434565b602082019050919050565b6000602082019050818103600083015261a4998161a45d565b9050919050565b7f6269674d6f64457870206661696c757265210000000000000000000000000000600082015250565b600061a4d6601283618b80565b915061a4e18261a4a0565b602082019050919050565b6000602082019050818103600083015261a5058161a4c9565b905091905056fe307866666666666666666666666666666666666666666666666666666666666666666666666666666666666666666666666666666666666666666666666666666666666666666666a2646970667358221220ffc5ea09394194dc6b5b7f3f1baa56860b0f6607f7d4257014ce8ad673e67bfb64736f6c63430008130033","linkReferences":{}},"methodIdentifiers":{"BLOCKHASH_STORE()":"689c4517","LINK()":"1b6b6d23","LINK_NATIVE_FEED()":"72e9d565","MAX_CONSUMERS()":"64d51a2a","MAX_NUM_WORDS()":"40d6bb82","MAX_REQUEST_CONFIRMATIONS()":"15c48b84","acceptOwnership()":"79ba5097","acceptSubscriptionOwnerTransfer(uint256)":"b2a7cac5","addConsumer(uint256,address)":"bec4c08c","cancelSubscription(uint256,address)":"0ae09540","createSubscription()":"a21a23e4","deregisterMigratableCoordinator(address)":"04104edb","deregisterProvingKey(uint256[2])":"08821d58","fulfillRandomWords((uint256[2],uint256[2],uint256,uint256,uint256,address,uint256[2],uint256[2],uint256),(uint64,uint256,uint32,uint32,address,bytes),bool)":"301f42e9","fundSubscriptionWithNative(uint256)":"95b55cfc","getActiveSubscriptionIds(uint256,uint256)":"aefb212f","getSubscription(uint256)":"dc311dd3","hashOfKey(uint256[2])":"caf70c4a","migrate(uint256,address)":"405b84fa","onTokenTransfer(address,uint256,bytes)":"a4c0ed36","owner()":"8da5cb5b","ownerCancelSubscription(uint256)":"aa433aff","pendingRequestExists(uint256)":"41af6c87","recoverFunds(address)":"e72f6e30","recoverNativeFunds(address)":"8402595e","registerMigratableCoordinator(address)":"5d06b4ab","registerProvingKey(uint256[2],uint64)":"7a5a2aef","removeConsumer(uint256,address)":"cb631797","requestRandomWords((bytes32,uint256,uint16,uint32,uint32,bytes))":"9b1c385e","requestSubscriptionOwnerTransfer(uint256,address)":"dac83d29","s_config()":"088070f5","s_currentSubNonce()":"9d40a6fd","s_fallbackWeiPerUnitLink()":"043bd6ae","s_provingKeyHashes(uint256)":"d98e620e","s_provingKeys(bytes32)":"da2f2610","s_requestCommitments(uint256)":"ee9d2d38","s_totalBalance()":"86fe91c7","s_totalNativeBalance()":"18e3dd27","setConfig(uint16,uint32,uint32,uint32,int256,uint32,uint32,uint8,uint8)":"a63e0bfb","setLINKAndLINKNativeFeed(address,address)":"65982744","transferOwnership(address)":"f2fde38b","withdraw(address)":"51cff8d9","withdrawNative(address)":"2f622e6b"},"id":18}