{"abi":[{"type":"constructor","inputs":[{"name":"entranceFee","type":"uint256","internalType":"uint256"}],"stateMutability":"nonpayable"},{"type":"function","name":"enterRaffle","inputs":[],"outputs":[],"stateMutability":"payable"},{"type":"function","name":"getEntranceFee","inputs":[],"outputs":[{"name":"","type":"uint256","internalType":"uint256"}],"stateMutability":"view"},{"type":"function","name":"pickWinner","inputs":[],"outputs":[],"stateMutability":"nonpayable"},{"type":"error","name":"notEnoughEth","inputs":[]}],"bytecode":{"object":"0x60a060405234801561000f575f5ffd5b5060405161022a38038061022a83398181016040528101906100319190610076565b8060808181525050506100a1565b5f5ffd5b5f819050919050565b61005581610043565b811461005f575f5ffd5b50565b5f815190506100708161004c565b92915050565b5f6020828403121561008b5761008a61003f565b5b5f61009884828501610062565b91505092915050565b60805161016c6100be5f395f81816084015260aa015261016c5ff3fe608060405260043610610033575f3560e01c806309bc33a7146100375780632cfcc539146100615780635d495aea1461006b575b5f5ffd5b348015610042575f5ffd5b5061004b610081565b604051610058919061011d565b60405180910390f35b6100696100a8565b005b348015610076575f5ffd5b5061007f610103565b005b5f7f0000000000000000000000000000000000000000000000000000000000000000905090565b7f00000000000000000000000000000000000000000000000000000000000000003411610101576040517f942bf51700000000000000000000000000000000000000000000000000000000815260040160405180910390fd5b565b565b5f819050919050565b61011781610105565b82525050565b5f6020820190506101305f83018461010e565b9291505056fea2646970667358221220da0003ac2adb7f63b18d18ba2ae5bacaf1ea688560bc6fc29d1138bd617a434e64736f6c634300081c0033","linkReferences":{}},"methodIdentifiers":{"enterRaffle()":"2cfcc539","getEntranceFee()":"09bc33a7","pickWinner()":"5d495aea"},"id":0}